:020000040800F2
:100000000000032009210008614300086F43000835
:10001000754300087B43000881430008000000008E
:1000200000000000000000000000000091A3000894
:100030008743000800000000D1A5000839A6000889
:100040005D2100085D2100085D2100082F440008A3
:100050005D2100085D2100081344000821440008C8
:100060005D2100085D210008054400085D210008AD
:100070005D2100085D210008954300085D2100080E
:100080005D2100085D2100085D2100085D21000858
:100090005D2100085D2100085D2100085D21000848
:1000A0005D2100085D210008A94300085D210008CA
:1000B0005D2100085D2100085D2100085D21000828
:1000C0005D2100085D2100085D2100085D21000818
:1000D000BD430008D14300085D2100085D210008F0
:1000E0005D2100085D2100085D2100085D210008F8
:1000F000474400083B440008E54300085D21000830
:100100005D2100085D2100085D2100085D210008D7
:100110005D2100085D2100085D2100085D210008C7
:100120005D2100085D210008F14300085D21000801
:0C0130005D2100085D2100085D21000831
:1001400010B5054C237833B9044B13B10448AFF311
:1001500000800123237010BDA003002000000000D8
:100160000801010808B5034B1BB103490348AFF36D
:10017000008008BD00000000A40300200801010861
:10018000034613F8012B002AFBD1181A01387047D7
:1001900001F0FF01102A2BDB10F0070F08D010F838
:1001A000013B013A8B422DD010F0070F42B3F6D13C
:1001B000F0B441EA012141EA014122F007047FF055
:1001C00000070023F0E80256083C85EA010586EAAC
:1001D000010685FA47F5A3FA87F586FA47F6A5FAE8
:1001E00087F68EB9EED1F0BC01F0FF0102F00702F4
:1001F00032B110F8013B013A83EA010313B1F8D19F
:100200000020704701387047002D06BF354603387F
:10021000073815F0010F07D1013015F4807F02BFB8
:10022000013015F4C03F0130F0BC0138704700BF09
:1002300081F0004102E000BF83F0004330B54FEA97
:1002400041044FEA430594EA050F08BF90EA020F04
:100250001FBF54EA000C55EA020C7FEA645C7FEA97
:10026000655C00F0E2804FEA5454D4EB5555B8BFBA
:100270006D420CDD2C4480EA020281EA030382EA2B
:10028000000083EA010180EA020281EA0303362DBD
:1002900088BF30BD11F0004F4FEA01314FF4801C90
:1002A0004CEA113102D0404261EB410113F0004FA2
:1002B0004FEA03334CEA133302D0524263EB430359
:1002C00094EA050F00F0A780A4F10104D5F1200EF7
:1002D0000DDB02FA0EFC22FA05F2801841F1000152
:1002E00003FA0EF2801843FA05F359410EE0A5F126
:1002F00020050EF1200E012A03FA0EFC28BF4CF057
:10030000020C43FA05F3C01851EBE37101F000450C
:1003100007D54FF0000EDCF1000C7EEB00006EEB19
:100320000101B1F5801F1BD3B1F5001F0CD34908A3
:100330005FEA30004FEA3C0C04F101044FEA4452FA
:1003400012F5800F80F09A80BCF1004F08BF5FEA81
:10035000500C50F1000041EB045141EA050130BD61
:100360005FEA4C0C404141EB010111F4801FA4F104
:100370000104E9D191F0000F04BF01460020B1FA59
:1003800081F308BF2033A3F10B03B3F120020CDA91
:100390000C3208DD02F1140CC2F10C0201FA0CF06F
:1003A00021FA02F10CE002F11402D8BFC2F1200CD4
:1003B00001FA02F120FA0CFCDCBF41EA0C0190408A
:1003C000E41AA2BF01EB0451294330BD6FEA0404D3
:1003D0001F3C1CDA0C340EDC04F11404C4F12002BE
:1003E00020FA04F001FA02F340EA030021FA04F3D0
:1003F00045EA030130BDC4F10C04C4F1200220FA27
:1004000002F001FA04F340EA0300294630BD21FA64
:1004100004F0294630BD94F0000F83F4801306BF2A
:1004200081F480110134013D4EE77FEA645C18BF1E
:100430007FEA655C29D094EA050F08BF90EA020FB5
:1004400005D054EA000C04BF1946104630BD91EAAD
:10045000030F1EBF0021002030BD5FEA545C05D1B0
:100460004000494128BF41F0004130BD14F58004EF
:100470003CBF01F5801130BD01F0004545F0FE4163
:1004800041F470014FF0000030BD7FEA645C1ABF98
:10049000194610467FEA655C1CBF0B46024650EACF
:1004A000013406BF52EA033591EA030F41F40021FB
:1004B00030BD00BF90F0000F04BF0021704730B581
:1004C0004FF4806404F132044FF000054FF0000156
:1004D00050E700BF90F0000F04BF0021704730B517
:1004E0004FF4806404F1320410F0004548BF4042EC
:1004F0004FF000013EE700BF42004FEAE2014FEA41
:1005000031014FEA02701FBF12F07F4393F07F4F1B
:1005100081F06051704732F07F4208BF704793F01E
:100520007F4F04BF41F40021704730B54FF4607431
:1005300001F0004521F000411CE700BF50EA010234
:1005400008BF704730B54FF000050AE050EA0102DD
:1005500008BF704730B511F0004502D5404261EB4D
:1005600041014FF4806404F132045FEA915C3FF48E
:10057000D8AE4FF003025FEADC0C18BF03325FEA2B
:10058000DC0C18BF033202EBDC02C2F1200300FADC
:1005900003FC20FA02F001FA03FE40EA0E0021FA01
:1005A00002F11444BDE600BF70B54FF0FF0C4CF4EF
:1005B000E06C1CEA11541DBF1CEA135594EA0C0FA1
:1005C00095EA0C0F00F0DEF82C4481EA030621EADC
:1005D0004C5123EA4C5350EA013518BF52EA033517
:1005E00041F4801143F4801338D0A0FB02CE4FF0C9
:1005F0000005E1FB02E506F00042E0FB03E54FF0F9
:100600000006E1FB03569CF0000F18BF4EF0010EF0
:10061000A4F1FF04B6F5007F64F5407404D25FEAEC
:100620004E0E6D4146EB060642EAC62141EA55519F
:100630004FEAC52040EA5E504FEACE2EB4F1FD0CE1
:1006400088BFBCF5E06F1ED8BEF1004F08BF5FEA5F
:10065000500E50F1000041EB045170BD06F0004611
:1006600046EA010140EA020081EA0301B4EB5C04BE
:10067000C2BFD4EB0C0541EA045170BD41F48011B6
:100680004FF0000E013C00F3AB8014F1360FDEBFDB
:10069000002001F0004170BDC4F10004203C35DAB7
:1006A0000C341BDC04F11404C4F1200500FA05F33A
:1006B00020FA04F001FA05F240EA020001F00042DB
:1006C00021F0004110EBD37021FA04F642EB060151
:1006D0005EEA430E08BF20EAD37070BDC4F10C047B
:1006E000C4F1200500FA04F320FA05F001FA04F23F
:1006F00040EA020001F0004110EBD37041F100012B
:100700005EEA430E08BF20EAD37070BDC4F1200535
:1007100000FA05F24EEA020E20FA04F301FA05F29D
:1007200043EA020321FA04F001F0004121FA04F245
:1007300020EA020000EBD3705EEA430E08BF20EA15
:10074000D37070BD94F0000F0FD101F0004640004F
:1007500041EB010111F4801F08BF013CF7D041EAD1
:10076000060195F0000F18BF704703F000465200D5
:1007700043EB030313F4801F08BF013DF7D043EAA6
:100780000603704794EA0C0F0CEA135518BF95EA5C
:100790000C0F0CD050EA410618BF52EA4306D1D1E3
:1007A00081EA030101F000414FF0000070BD50EA02
:1007B000410606BF1046194652EA430619D094EA8C
:1007C0000C0F02D150EA013613D195EA0C0F05D176
:1007D00052EA03361CBF104619460AD181EA0301CA
:1007E00001F0004141F0FE4141F470014FF0000082
:1007F00070BD41F0FE4141F4780170BD70B54FF01D
:10080000FF0C4CF4E06C1CEA11541DBF1CEA13559C
:1008100094EA0C0F95EA0C0F00F0A7F8A4EB05047E
:1008200081EA030E52EA03354FEA013100F0888075
:100830004FEA03334FF0805545EA131343EA12633E
:100840004FEA022245EA111545EA10654FEA0026F3
:100850000EF000419D4208BF964244F1FD0404F5AC
:10086000407402D25B084FEA3202B61A65EB030508
:100870005B084FEA32024FF480104FF4002CB6EBC5
:10088000020E75EB030E22BFB61A754640EA0C0045
:100890005B084FEA3202B6EB020E75EB030E22BF85
:1008A000B61A754640EA5C005B084FEA3202B6EBC6
:1008B000020E75EB030E22BFB61A754640EA9C0085
:1008C0005B084FEA3202B6EB020E75EB030E22BF55
:1008D000B61A754640EADC0055EA060E18D04FEA13
:1008E000051545EA16754FEA06164FEAC30343EAB3
:1008F00052734FEAC2025FEA1C1CC0D111F4801F80
:100900000BD141EA00014FF000004FF0004CB6E778
:1009100011F4801F04BF01430020B4F1FD0C88BF17
:10092000BCF5E06F3FF6AFAEB5EB030C04BFB6EB22
:10093000020C5FEA500C50F1000041EB045170BD15
:100940000EF0004E4EEA113114EB5C04C2BFD4EB42
:100950000C0541EA045170BD41F480114FF0000EC6
:10096000013C90E645EA060E8DE60CEA135594EA42
:100970000C0F08BF95EA0C0F3FF43BAF94EA0C0F45
:100980000AD150EA01347FF434AF95EA0C0F7FF4BA
:1009900025AF104619462CE795EA0C0F06D152EA0E
:1009A00003353FF4FDAE1046194622E750EA4106F2
:1009B00018BF52EA43067FF4C5AE50EA41047FF403
:1009C0000DAF52EA43057FF4EBAE12E74FF0FF3C68
:1009D00006E000BF4FF0010C02E000BF4FF0010C39
:1009E0004DF804CD4FEA410C7FEA6C5C4FEA430CB2
:1009F00018BF7FEA6C5C1BD001B050EA410C0CBF01
:100A000052EA430C91EA030F02BF90EA020F002062
:100A1000704710F1000F91EA030F58BF994208BFC9
:100A200090422CBFD8176FEAE37040F00100704786
:100A30004FEA410C7FEA6C5C02D150EA013C07D1DD
:100A40004FEA430C7FEA6C5CD6D152EA033CD3D028
:100A50005DF8040B704700BF8446104662468C4622
:100A60001946634600E000BF01B5FFF7B7FF002855
:100A700048BF10F1000F01BD4DF808EDFFF7F4FF7E
:100A80000CBF012000205DF808FB00BF4DF808ED09
:100A9000FFF7EAFF34BF012000205DF808FB00BF2C
:100AA0004DF808EDFFF7E0FF94BF012000205DF84E
:100AB00008FB00BF4DF808EDFFF7CEFF94BF012003
:100AC00000205DF808FB00BF4DF808EDFFF7C4FFFC
:100AD00034BF012000205DF808FB00BF4FEA410C45
:100AE0007FEA6C5C02D150EA013C0AD14FEA430C28
:100AF0007FEA6C5C02D152EA033C02D14FF0000065
:100B000070474FF0010070474FEA410212F50012A2
:100B100015D211D56FF47873B3EB625212D94FEA44
:100B2000C12343F0004343EA505311F0004F23FA2E
:100B300002F018BF404270474FF00000704750EA83
:100B4000013005D111F0004008BF6FF00040704740
:100B50004FF00000704700BF53B94AB9002908BFE1
:100B600000281CBF4FF0FF314FF0FF3000F072B98A
:100B7000ADF1080C6DE904CE00F006F8DDF804E0F4
:100B8000DDE9022304B070472DE9F047089E0446D2
:100B90008846002B4BD18A42154667D9B2FA82F2B9
:100BA0004AB1C2F1200701FA02F320FA07F7954093
:100BB00047EA030894404FEA154E230CB8FBFEF7B2
:100BC0001FFA85FC0EFB178843EA084307FB0CF16C
:100BD000994209D9EB1807F1FF3080F01B81994247
:100BE00040F21881023F2B445B1AA4B2B3FBFEF023
:100BF0000EFB103344EA034400FB0CFCA44509D966
:100C00002C1900F1FF3380F00781A44540F20481E4
:100C100002382C4440EA0740A4EB0C0400271EB124
:100C2000D4400023C6E900433946BDE8F0878B4233
:100C300009D9002E00F0EB800027C6E900013846F4
:100C40003946BDE8F087B3FA83F7002F47D18B42CE
:100C500002D3824200F2FA80841A61EB030301207E
:100C60009846002EE0D0C6E90048DDE702B9FFDE75
:100C7000B2FA82F2002A40F08F80491B4FEA154EEB
:100C80001FFA85F80127B1FBFEFC230C0EFB1C119B
:100C900043EA014308FB0CF1994207D9EB180CF128
:100CA000FF3002D2994200F2CD808446591AA3B295
:100CB000B1FBFEF00EFB101443EA044408FB00F8FD
:100CC000A04507D92C1900F1FF3302D2A04500F24C
:100CD000B6801846A4EB080440EA0C409FE7C7F131
:100CE000200CBB4022FA0CFE4EEA030E01FA07F478
:100CF00020FA0CF521FA0CF34FEA1E482543B3FB0A
:100D0000F8F92C0C08FB19331FFA8EFA44EA034356
:100D100009FB0AF49C4202FA07F200FA07F10BD928
:100D20001EEB030309F1FF3080F087809C4240F204
:100D30008480A9F1020973441B1BADB2B3FBF8F028
:100D400008FB103345EA034400FB0AFAA24508D920
:100D50001EEB040400F1FF336BD2A24569D90238BF
:100D6000744440EA0940A0FB0289A4EB0A044C4504
:100D7000C2464B4654D351D0002E69D0B1EB0A0580
:100D800064EB030404FA0CFCFD40FC404CEA05054E
:100D9000C6E90054002747E7C2F1200320FA03F711
:100DA000954001FA02F021FA03F34FEA154E384359
:100DB000010CB3FBFEF71FFA85F80EFB173341EA6F
:100DC000034107FB08F38B4204FA02F407D96918C0
:100DD00007F1FF3C2FD28B422DD9023F2944CB1A79
:100DE00081B2B3FBFEF00EFB103341EA034100FB7E
:100DF00008F38B4207D9691800F1FF3C17D28B42E8
:100E000015D902382944C91A40EA07473BE7374653
:100E1000304609E70746E7E61846FBE64145ABD210
:100E2000B8EB020A69EB0E0201381346A4E76046EC
:100E3000E9E7184695E76746D1E781467CE702383F
:100E40002C4447E7ACF1020C2B442FE7384608E767
:100E50003746E9E6704700BF80B400AF034B1B681C
:100E60001846BD465DF8047B704700BF8075FF1FC4
:100E700080B400AF034B1B68DBB21846BD465DF87B
:100E8000047B70478475FF1F80B400AF034B1B6861
:100E90001B0A1846BD465DF8047B70478475FF1F2A
:100EA000B0B58CB000AF00220021012009F07CF821
:100EB00002462F4B1A602F4B3C461D460FCD0FC4E8
:100EC0000FCD0FC495E80F0007C4237000F01CFA83
:100ED000012102200CF0F6FC274A0021274808F0E7
:100EE0007FFD0246264B1A60264A0021264808F05C
:100EF00077FD0246254B1A603B46184607F0DEFE9A
:100F000000F020FA06F038FE214B002283F89020F2
:100F10001F4B4FF6FF72DA84062007F072FD1D4B5F
:100F200000221A701C4B01221A7000F053FD1B4B5B
:100F300000221B49002002F013FA1A4B00221A4922
:100F4000002002F00DFA124B002283F82920104BEA
:100F5000002283F82820154B80221A80144BA022EF
:100F60001A80012000F0C8FA00BF3037BD46B0BD7E
:100F7000E428002048010108980701082D180008FE
:100F8000EC280020BC07010847180008F8280020BA
:100F9000F8010020F1280020F0280020291700087F
:100FA00089020020411700088A0200208C020020DC
:100FB0008E02002080B58CB000AF7860422387F8A5
:100FC0002F307B680133BB62BB6A1B783E2B28D075
:100FD000FF2B00F0AF80052B00D057E1BB6A023336
:100FE0003B613B69B3F801309AB2AB4BDB8C9A4260
:100FF00009D1A94B0022DA84A74B002283F8902064
:10100000A6480DF0CFF9012000F076FAA44B01229A
:101010001A70A14BDA8CA24B5A80A14800F0C6FC92
:1010200034E1BB6A0233FB61FB691B78032B04D0FC
:101030000C2B06D0012B42D07BE09A480DF0B2F980
:1010400077E099480DF0AEF9FB690133BB61BB69EC
:101050001B78002B03D195480DF0A4F902E09448C9
:101060000DF0A0F98C4BDB8C07F10E0207F10F019C
:10107000184607F034FD034687F82F3097F82F30D5
:10108000002B18D18B480DF08DF9FB7B022B0AD178
:10109000BB7B022B07D1FB7B1946BB7B1A468648DC
:1010A0000DF00CF945E0FB7B1946BB7B1A468248E4
:1010B0000DF004F93DE081480DF074F939E0FB6969
:1010C00001337B61744B93F89130184602F0BEF9FE
:1010D0007B69B3F801309BB2194679480DF0EEF800
:1010E0006D4B93F89030042B04D16B4B062283F8A0
:1010F000902003E0684B052283F890207B69B3F8C9
:1011000001309AB2644BDA84654B00221A70624B4C
:10111000DA8C634B5A80624800F048FC604B002236
:101120001A705D4BDA8C5E4B5A805D4800F03EFCD5
:1011300000BFABE0BB6A02337B627B6A1B889BB259
:1011400040F20542934249D040F20542934217DCF7
:1011500040F20142934273D040F20142934206DCD6
:10116000042B00F08A80B3F5806F24D08DE040F22C
:10117000034293422AD040F2034293422ADC1EE00B
:10118000B3F5816F3AD0B3F5816F08DC40F20642C7
:1011900093422FD040F2074293426AD075E040F26A
:1011A0000A4293422ED040F20A4293422EDBB3F51C
:1011B000006F5AD069E043480DF0F4F865E042480A
:1011C0000DF0F0F841480DF0EDF85EE040480DF00C
:1011D000E9F85AE03F480DF0E5F856E03E480DF0DA
:1011E000E1F82D4BDB8C184607F065F83B480DF015
:1011F000D9F84AE03A480DF0D5F846E038480DF005
:10120000D1F842E037480DF0CDF83EE07B6A02337A
:10121000D3F80230194634480DF050F87B6A023397
:10122000D3F80230194631480DF048F81A4BDB8CE0
:101230000121184607F089F82D480DF0B3F824E095
:101240007B6A02333B623B6A9B78194629480DF062
:1012500035F83B6A9B78002B03D127480DF0A2F8A4
:1012600013E026480DF09EF80FE0254B01221A707E
:101270000BE024480DF096F807E0074B93F8923006
:101280000A21184602F06CF900BF00BF012318467E
:101290003037BD4680BD00BFF8010020780101084D
:1012A000E8280020A0010108CC010108E80101089C
:1012B0000C02010834020108480201086402010816
:1012C0007C020108B0020108DC02010804030108E5
:1012D000240301085003010880030108A00301084A
:1012E000BC030108E00301080C0401082404010800
:1012F0003804010874040108CC040108E004010862
:10130000F0280020F404010880B582B000AF00206E
:1013100008F002FD0246074B1A60074B3B60074B83
:101320007B603B461946064807F0F6FC00BF0837CD
:10133000BD4680BDF428002028000320ED170008DA
:10134000B5170008F0B591B006AF0023BB8007F0D9
:10135000A2FB00F079F938623A6A0621002007F012
:1013600090FA3B6A5A795E4B1A723B6A1A795C4B67
:101370005A723B6ADA785A4B9A723B6A9A78584B9F
:10138000DA723B6A5A78564B1A733B6A1A78544B96
:101390005A734EF66E53FB60FFF75EFD0346BB606B
:1013A00007F108031A4606212E2007F06AFA4D4A73
:1013B0001021182007F065FA4B4A1021082007F089
:1013C00060FA1821012007F0C5FA07F015F800238C
:1013D000FB77FB7F43F00103FB77FB7F002B1ED0E5
:1013E000424BBB6107F11602F87F07F1120301932C
:1013F00007F11403009313460722002106F050FE64
:10140000FC8ABD8AB869FEF7BBFE0346DAB2BB6947
:101410000093134600222946204607F0ABF9F88ACC
:10142000798A3B1D00930223002207F0A3F90222D0
:101430000221002007F0BBFB2D4B03221A702C4B1E
:101440001B78184606F03AFD294B01225A70284BAA
:101450000022DA70264B08225A75254B10229A7505
:10146000234B00221A75224B224A9A61204B0022FC
:101470009A70002387F827300BE097F827301C4A32
:10148000134497F827201A7197F82730013387F80B
:10149000273097F827300F2BEFD9154B9D78144B39
:1014A0005E78134B5B7D124A927D1149097D10488D
:1014B0008069002404940390029101920093002318
:1014C00001223146284606F043FD094B9B78002B4C
:1014D00001D006F0CCFE00BF2C37BD46F0BD00BFEA
:1014E0000400002070070108800701081C0501089E
:1014F000F801002007B2010080B58CB008AF0346A8
:10150000FB714223FB72FB79012B06D1404B1B88F8
:10151000FB81404B1B88BB8105E04FF4C863FB8116
:101520004FF47A63BB813C4B93F89130184601F03D
:101530008DFF394B93F89030194638480CF0BEFEB9
:10154000FB79022B19D1344B93F89030012B04D046
:10155000314B93F89030022B0FD106F0ADFB0346D0
:10156000FB72FB7A002B03D12D480CF01BFF04E02B
:10157000FB7A19462B480CF0A1FE274AFB7982F82A
:101580009030254B93F82830B889F98900220692CB
:1015900000220592244A04920393244B02930823C9
:1015A00001930023009300230246002006F0A8FBCD
:1015B0000346FB721E490E2006F0FDFD0346FB723A
:1015C000FB7A002B11D1FB79012B0AD119480CF0C1
:1015D000E9FE114B93F891301749184601F0C0FF0E
:1015E00012E016480CF0DEFE0EE0FB79012B05D16F
:1015F000FB7A194612480CF061FE05E0FB7A1946A9
:1016000010480CF05BFE00BF1037BD4680BD00BF28
:101610008C0200208E020020F80100202405010821
:101620004005010864050108210200209007010817
:10163000040000208C05010846E00100B405010803
:10164000E00501081006010880B586B000AFFFF77D
:1016500003FC38613B69B3F1FF3F23D0FFF714FC73
:10166000B860FFF705FC78603B69DAB2164B1A7078
:101670003B691B0ADAB2144B5A703B691B0CDAB295
:10168000114B9A707B68DAB20F4BDA70BB68DAB232
:101690000D4B1A71BB681B0ADAB20B4B5A710A4B1D
:1016A0007B610BE0002008F04DF8F860FB68002B30
:1016B00002D0FB687B6101E0044B7B617B691846CB
:1016C0001837BD4680BD00BFBC0300206807010875
:1016D00080B582B000AF104B93F89030052B17D037
:1016E0000023FB7106F0E8FA0346FB710A4B002267
:1016F00083F89020FB79002B06D108480CF0DEFD22
:1017000007480CF0DBFD03E006480CF0D7FD00BFF6
:1017100000BF0837BD4680BDF8010020440601081F
:101720004C0601086806010880B500AF034B1B6832
:101730000121184608F0FAF900BF80BDF828002002
:1017400080B400AF00BFBD465DF8047B7047000069
:1017500080B582B000AF7860044B1B680121184649
:1017600008F0E4F900BF0837BD4680BDEC28002032
:1017700080B582B000AF7860044B1B68184608F053
:1017800017FD00BF0837BD4680BD00BFE42800201C
:1017900080B582B000AF7860054B1B684FF0FF3119
:1017A000184608F09FFC00BF0837BD4680BD00BF4B
:1017B000E428002080B584B000AF78607B68FB60CF
:1017C000FB685B680833184606F024FA0346FB7290
:1017D000FB7A002B03D0FB6801221A7002E0FB6841
:1017E00000221A7000BF1037BD4680BD80B582B0A0
:1017F00000AF0346FB71FB79002B02D0012B08D010
:101800000DE0094B1B684FF0FF31184608F01EFB36
:1018100005E0054B1B68184608F076FB00BF00BFCB
:101820000837BD4680BD00BFF428002080B582B0D7
:1018300000AF78604FF0FF320021012008F0D8F9A6
:1018400007F086FAF6E780B582B000AF78604FF017
:10185000FF320021012008F0CBF9FFF739FFF6E74E
:1018600080B58AB000AF78607B681B78012B08D008
:10187000032B0AD0002B00D08DE0494B01221A70B7
:1018800089E0474B00221A7085E07B685B681B7813
:10189000002B11D17B685B6801331B78012B02D1CF
:1018A0003F4B01229A707B685B6801331B78002BE9
:1018B00002D13B4B00229A707B685B681B78012B3E
:1018C00068D17B685B6802330822194635480CF002
:1018D00085F87B685B689A7A314B1A747B685B6821
:1018E000DA7A2F4B5A7407F1140300221A605A60F7
:1018F0009A60DA601A6100233B61294A07F1080304
:10190000083292E8030083E80300FB7A3B75BB7A58
:101910007B757B7ABB750023BB6100233B62204B48
:101920005B7C002B02D04FF480333B6200237B6250
:1019300007F11403012219461B4805F0F8F9034684
:10194000002B01D002F078FAFB7B3B74BB7B7B74ED
:101950007B7BBB743B7BFB7407F1100301221946B0
:10196000114805F0A8FA0346002B01D002F064FAF2
:101970007B685B6801331B78012B02D1084B012285
:101980009A707B685B6801331B78002B02D1044B93
:1019900000229A7000BF00BF2837BD4680BD00BF3F
:1019A00090020020980200208C2A002080B582B08E
:1019B00000AF78607B681B78002B05D0012B00D02E
:1019C00003E000F013F800E000BF00BF0837BD4699
:1019D00080BD000080B500AF034B00221A7000F0FC
:1019E00005F800BF80BD00BF9002002090B400AF9A
:1019F0000E4B01225A700D4B00229A700B4A4FF089
:101A000000034FF00004C2E90234084B00221A74AC
:101A1000064B00225A74054B0122DA70034B002258
:101A20001A7100BFBD4690BC704700BF90020020F5
:101A300080B58AB000AF7860002387F827307B68D4
:101A400001333B623B6A1B78FF2B00D04AE03B6AC4
:101A50000233FB61FB691B889BB21A4640F60143C7
:101A60009A4200D03DE0FB690233BB61BB695B88F1
:101A70009BB21A461E4B9B8802339A4218D101230F
:101A800087F82730BB691B7A03F00103002B07D0CE
:101A900000233B7207F108031846FFF7E1FE1FE041
:101AA00001233B7207F108031846FFF7D9FE17E040
:101AB000BB695B889BB21A460D4B5B8801339A4227
:101AC0000ED103233B72BB69DB889BB2DBB23B7454
:101AD000BB690833FB6007F108031846FFF7C0FE37
:101AE00000BF00BF97F8273018462837BD4680BD95
:101AF000A802002080B58AB006AF4A4806F070F808
:101B00008F233B70E5237B70B323BB70D523FB7021
:101B10002E233B717F237B714A23BB719823FB717A
:101B20002A233B7248237B727A23BB72CC23FB723D
:101B300040233B73FE237B730023BB730023FB73A3
:101B40003946394B009308230122022006F079FC24
:101B500019233B70ED237B708223BB70AE23FB7097
:101B6000ED233B7121237B714C23BB719D23FB71C2
:101B700041233B7245237B722223BB728E23FB726F
:101B800041233B73FE237B730023BB730023FB7352
:101B9000254B18883A46254B0593012304930A23C5
:101BA000039301230293002301930623009302234E
:101BB000022106F0F5FC19233B70ED237B70822394
:101BC000BB70AE23FB70ED233B7121237B714C2353
:101BD000BB719D23FB7141233B7245237B72222302
:101BE000BB728E23FB7242233B73FE237B73002365
:101BF000BB730023FB730C4B18883A460C4B0593C0
:101C0000012304930A2303930123029300230193E6
:101C1000102300930223022106F0C2FC00BF1037FC
:101C2000BD4680BD311A0008A8020020AA0200208B
:101C3000AC02002080B400AF054BDB68044A43F4DB
:101C40000043D36000BFBD465DF8047B704700BF12
:101C50000004005880B483B000AF7860064BD3F81E
:101C6000D42005497B681343C1F8D43000BF0C373A
:101C7000BD465DF8047B70470008005880B483B00F
:101C800000AF7860054B1A6A04497B6813430B6206
:101C900000BF0C37BD465DF8047B70470008005854
:101CA00080B485B000AF78604FF0B0431A6D4FF04C
:101CB000B0417B6813430B654FF0B0431A6D7B68EE
:101CC0001340FB60FB6800BF1437BD465DF8047B22
:101CD000704780B485B000AF78604FF0B043D3F860
:101CE00050214FF0B0417B681343C1F850314FF0A1
:101CF000B043D3F850217B681340FB60FB6800BF02
:101D00001437BD465DF8047B704780B483B000AFE4
:101D100078607B681B6843F480327B681A6000BF80
:101D20000C37BD465DF8047B704780B483B000AFCC
:101D300078607B681B6843F001027B681A6000BF13
:101D40000C37BD465DF8047B704780B483B000AFAC
:101D5000786039607B685A683B681B04DB431A4033
:101D60007B685A6000BF0C37BD465DF8047B704746
:101D700080B483B000AF786039607B685A683B6894
:101D80001B041A437B685A6000BF0C37BD465DF8E0
:101D9000047B704780B483B000AF786039607B68A3
:101DA0005A683B68DB431A407B685A6000BF0C37B7
:101DB000BD465DF8047B704780B483B000AF7860A7
:101DC00039607B683A689A6000BF0C37BD465DF8A1
:101DD000047B704780B483B000AF786039603B68A3
:101DE0001A047B689A6000BF0C37BD465DF8047B1F
:101DF000704780B483B000AF786039607B68DA6880
:101E00003B6813403A689A4201D1012300E0002365
:101E100018460C37BD465DF8047B704780B483B02C
:101E200000AF786039607B68DA693B6813403A68D4
:101E30009A4201D1012300E0002318460C37BD4629
:101E40005DF8047B7047000080B500AF022119489F
:101E5000FFF7E4FF0346002B09D0164B5B68DB431A
:101E600003F00203002B02D000F0EAF81FE001218A
:101E70001048FFF7D3FF0346002B08D00D4B5B68DB
:101E800003F00103002B02D100F09EF80FE00821BF
:101E90000848FFF7C3FF0346002B09D0054B5B68DA
:101EA000DB4303F00803002B02D000F015F900BF5C
:101EB00000BF80BD000C005880B500AF0221224851
:101EC000FFF797FF0346002B09D11F4B5B68DB43ED
:101ED00003F40033002B02D000F0A6F831E0022119
:101EE0001948FFF786FF0346002B09D1164B5B68A4
:101EF000DB4303F40033002B02D000F095F820E020
:101F000008211148FFF775FF0346002B09D10E4B3E
:101F10005B68DB4303F40023002B02D000F0BEF823
:101F20000FE020210848FFF764FF0346002B09D18A
:101F3000054B5B68DB4303F40013002B02D000F079
:101F40004FF800BF00BF80BD000C005880B500AF47
:101F50004FF48010FFF7BDFE4FF40070FFF77AFEDC
:101F60004FF40070FFF78AFE40BF20BFFFF762FE0C
:101F700000BF80BD80B500AF4FF48010FFF790FE2A
:101F80000648FFF7D2FE0548FFF7BFFE2C2002F0FF
:101F90000DFD2D2002F00AFD00BF80BD000C005891
:101FA00080B500AF01210248FFF7F4FE00BF80BDFD
:101FB000000C005880B500AF01210248FFF70AFF6E
:101FC00000BF80BD000C005880B500AF07F0FEF9DF
:101FD00001210248FFF7F0FE00BF80BD000C005851
:101FE00080B500AF20210348FFF7C2FE07F01EFABC
:101FF00000BF80BD000C005880B500AF0221024830
:10200000FFF7C8FE00BF80BD000C005880B500AFD0
:1020100002210448FFF7DEFE02210248FFF795FE89
:1020200000BF80BD000C005880B500AF02210348FE
:10203000FFF79EFE07F04AFA00BF80BD000C005873
:1020400080B500AF07F058FA02210248FFF7B4FE4E
:1020500000BF80BD000C005880B582B000AF786032
:1020600008210C48FFF7C5FE0346002B07D00A4A9B
:102070007B68136008210748FFF767FE06E07B686E
:10208000984708210348FFF7A5FE00BF0837BD4663
:1020900080BD00BF000C0058C403002080B500AF15
:1020A00008210648FFF764FE054B1B689847082186
:1020B0000248FFF78FFE00BF80BD00BF000C005834
:1020C000C403002080B500AF08210248FFF762FE7C
:1020D00000BF80BD000C005880B500AF07F0B4FA17
:1020E00008210248FFF768FE00BF80BD000C0058C1
:1020F000D458C4500433C4188C42F9D370470360D9
:1021000004308842FBD370470C48854602F03AFA07
:102110000B480C490C4A0023FFF7EDFF0B480C4914
:102120000023FFF7EEFF0B480B490023FFF7E9FF01
:102130000BF030FC01F0DAFCFEE7000000000320A9
:1021400004000020F4010020C00C0108A0030020BE
:10215000A42B0020E0010320570A0320FEE780B4EF
:1021600085B000AF78604FF0B043DA6C4FF0B0410B
:102170007B681343CB644FF0B043DA6C7B68134049
:10218000FB60FB6800BF1437BD465DF8047B7047F9
:1021900080B483B000AF78604FF0B043DA6C7B68F6
:1021A000DB434FF0B0411340CB6400BF0C37BD465A
:1021B0005DF8047B704780B485B000AF78604FF065
:1021C000B043D3F84C214FF0B0417B681343C1F8C2
:1021D0004C314FF0B043D3F84C217B681340FB6087
:1021E000FB6800BF1437BD465DF8047B70470000F4
:1021F00080B586B000AF3B1D00221A605A609A601D
:10220000DA601A610023FB600323BB604FF4604374
:102210007B600120FFF7A3FF3B1D19464FF0904064
:1022200002F00AFD0120FFF7B3FF18237B600220B4
:10223000FFF795FF3B1D1946094802F0FDFC0220FF
:10224000FFF7A6FF02F070FA02F074FA02F078FAD3
:1022500000F024F800F0C2F800BF1837BD4680BD7A
:1022600000040048B0B588B000AF0B4B3C1D1D46C4
:102270000FCD0FC495E8070003C422800234130C6D
:10228000237007F0CFF93B1D184606F02EFD00BF66
:102290002037BD46B0BD00BFE406010880B588B058
:1022A00000AF3B1D00221A605A609A60DA601A6122
:1022B0000023BB8300237B8300233B830023FB7726
:1022C00033E0FB7F424ADB0013449B79002B28D08C
:1022D000FB7F3F4A52F833303E4A93420FD03E4A8A
:1022E000934215D0B3F1904F00D01BE0FB7F384AEA
:1022F000DB0013449A88BB8B1343BB8312E0FB7F44
:10230000334ADB0013449A887B8B13437B8309E0B9
:10231000FB7F2F4ADB0013449A883B8B13433B839C
:1023200000E000BFFB7F0133FB77FB7F212BC8D987
:102330000023FB600123BB6003233B61BB8B002BAD
:1023400014D0BB8B7B600120FFF709FF0120FFF752
:1023500032FF3B1D19464FF0904002F06DFCBB8BE5
:10236000002219464FF0904002F0D6FD7B8B002BE7
:1023700012D07B8B7B600220FFF7F1FE0220FFF77B
:102380001AFF3B1D1946134802F056FC7B8B0022B6
:102390001946104802F0C0FD3B8B002B13D03B8B3D
:1023A0007B600420FFF7DBFE0420FFF704FF3B1DEA
:1023B0001946094802F040FC3B8B002219460648AA
:1023C00002F0AAFD00BF00BF2037BD4680BD00BFA0
:1023D000E0070108000400480008004880B400AF8E
:1023E00000BFBD465DF8047B7047000080B483B039
:1023F00000AF7860074BD3F8803023F0070205491F
:102400007B681343C1F8803000BF0C37BD465DF8D0
:10241000047B70470004005880B483B000AF78603C
:102420004FF0B0439B6823F400424FF0B0417B680B
:1024300013438B6000BF0C37BD465DF8047B7047CB
:1024400080B500AF00F010F80649002000F0A2FEB1
:10245000FFF7CEFE012101200BF034FA00F012F854
:1024600000BF80BD8C2A002080B500AF4FF4004033
:10247000FFF7D2FF0BF014FA0420FFF7B7FF00BFFD
:1024800080BD000080B588B000AF06F015FF0020C9
:1024900007F042FC0246174B1A600022002101207F
:1024A00007F082FD0246144B1A60144A00211448BA
:1024B00007F096FA0246134B1A60134B3B60134B1E
:1024C0007B603B461946124806F0BCFD114BBB60D1
:1024D000114BFB60114B3B6140F23C537B6107F1B8
:1024E0000803184607F02AF806F0E0FE00BF203780
:1024F000BD4680BDFC28002004290020F00801080A
:102500008125000800290020240703202125000838
:10251000612500083C09032030080320E80103205E
:1025200080B582B000AF0346FB71FB79002B02D06F
:10253000012B08D00DE0094B1B684FF0FF31184606
:1025400007F084FC05E0054B1B68184607F0DCFC2F
:1025500000BF00BF0837BD4680BD00BFFC2800207B
:1025600080B582B000AF7860FFF77CFEFEF798FC84
:10257000002101200BF0A6F900BF0837BD4680BD41
:1025800080B582B000AF78604FF0FF3200210120AB
:1025900007F02EFB06F072FDF6E7000080B582B072
:1025A00000AF7860044B1B680121184607F0BEFAA3
:1025B00000BF0837BD4680BD0029002080B582B02D
:1025C00000AF7860044B1B68184607F0F1FD00BFB0
:1025D0000837BD4680BD00BF0429002080B582B009
:1025E00000AF7860054B1B684FF0FF31184607F0CD
:1025F00079FD00BF0837BD4680BD00BF042900201B
:1026000080B584B000AF7860204B1B681F4A23F070
:102610000103136072B6BFF34F8FBFF36F8F0AF0E1
:102620003FF90346002B07D1184B1B68174A43F0AC
:102630000103136062B624E07B68B3F1FF3F05D06D
:102640007B68013B7B60786800F074F800F0A0F8CC
:102650007B68B3F1FF3F05D000F0A2F8F860F8689E
:1026600009F072FE0A4B00221A60084B1B68074AE9
:1026700043F001031360074B1B68074A013B1360DB
:1026800062B600BF1037BD4680BD00BF10E000E05D
:1026900018E000E0C803002014E000E080B500AFBF
:1026A00000F028F80D4B1B680D4AA2FB03239B0981
:1026B0000C4A13600C4B00221A600C4B00221A606B
:1026C000064B1B68064AA2FB03239B09084A013BF1
:1026D0001360054B07221A6000BF80BD1400002064
:1026E000D34D6210C803002010E000E018E000E0C5
:1026F00014E000E098B500AF074B00220749002026
:1027000000F02EFE064A4FF000034FF00004C2E92D
:10271000003400BF98BD00BF25270008DC0300205F
:10272000D003002080B400AF00BFBD465DF8047B3D
:102730007047000090B585B000AF78607B68114AA3
:1027400002FB03F34FF00004C7E90234D7E90201AA
:102750000D4A4FF00003FEF7FFF903460C46C7E9A8
:1027600002340A4B1B7BBA681146184600F0F8FE8B
:1027700000F07CFF03461A46044B9A6000BF1437F2
:10278000BD4690BD40420F0040720700D0030020BC
:1027900080B500AF0BF0C4F800BF80BD00000000A2
:1027A000F0B589B000AF00F061FF03467B61624B7A
:1027B0009A687B69D31A1D464FF000062B463446B3
:1027C0004FF000014FF00002220142EA137219019A
:1027D0000B4614465B1B64EB06044FF000014FF000
:1027E0000002A20042EA937299000B4614465B195C
:1027F00044EB06044FF000014FF00002E20042EA11
:102800005372D9000B461446C7E9063446A4D4E9EE
:102810000034C7E90234D7E9023445A2D2E90012F4
:102820005D1844EB0206C7E90256434B9A687B6980
:10283000D31A4FF00004FA6803FB02F1BA6804FBF4
:1028400002F20A44B968A1FB033422441446C7E9E2
:102850000234C7E90234384BD3E90012D7E9023415
:102860005D1844EB0206344AC2E9005612E0D7E98B
:102870000634591C44F10002C7E906122E4BD3E975
:1028800000562E494FF0FF326B1846EB02042A4ADD
:10289000C2E90034284BD3E9003429494FF0000243
:1028A000A24208BF9942E2D3D7E906562B463446E6
:1028B0004FF000014FF00002620142EAD362590179
:1028C0000B4614465B1B64EB06044FF000014FF00F
:1028D0000002A20042EA937299000B4614465B196B
:1028E00044EB06044FF000014FF00002E20042EA20
:1028F0005372D9000B461446C7E90034D7E90001EA
:10290000104A4FF00003FEF727F903460C46C7E9CB
:102910000034094B1B7B184600F098FD3B681846B5
:102920002437BD46F0BD00BFA2941A1D0000000070
:1029300000B6E9E2FFFFFFFFD0030020C0BDF0FFBB
:102940003F420F0040420F0080B483B000AF786078
:10295000064BD3F8802005497B681343C1F88030CB
:1029600000BF0C37BD465DF8047B70470008005877
:1029700080B483B000AF7860054B1A6804497B6867
:1029800013430B6000BF0C37BD465DF8047B7047F6
:102990000008005880B483B000AF0D4B9B6A9BB217
:1029A0007B600B4B9B6A9BB23B6005E03B687B60A6
:1029B000074B9B6A9BB23B607A683B689A42F5D1B1
:1029C0003B6818460C37BD465DF8047B704700BF76
:1029D0000028004080B485B000AF03460A46FB7172
:1029E0001346BB71BA791D4913465B001344DB00E3
:1029F0000B4415331B78FB73FB7B062B09D0FA7B4A
:102A0000164913465B001344DB000B441433FA7978
:102A10001A70FA79114913465B001344DB000B442A
:102A20001533FA7B1A70FA790C4913465B0013448C
:102A3000DB000B441433BA791A70BA79074913468C
:102A40005B001344DB000B441533FA791A7000BFA6
:102A50001437BD465DF8047B704700BFEC020020D0
:102A600080B485B000AF03460A46FB711346BB71C4
:102A7000294B1B78DBB2BA799A4232D0BA7927490E
:102A800013465B001344DB000B4414331B78FB73C9
:102A9000FA7B224913465B001344DB000B441533D9
:102AA000FA791A70FA791D4913465B001344DB006A
:102AB0000B441533BA791A70FA79184913465B003A
:102AC0001344DB000B441433FA7B1A70BA791349B0
:102AD00013465B001344DB000B441433FA791A707D
:102AE00014E0FA790D4913465B001344DB000B44F4
:102AF0001533BA791A70BA79084913465B00134442
:102B0000DB000B441433FA791A7000BF1437BD464A
:102B10005DF8047B704700BF7C030020EC020020BE
:102B200080B584B000AF0346FB714E4B1B78DBB21F
:102B3000062B18D14B4B1B78DAB24B4B1A70494A13
:102B4000FB791370FA79494913465B001344DB00A3
:102B50000B44153306221A70454B4FF0FF321A60B2
:102B60000023FB8178E000F009F90346FB81FA7944
:102B70003E4913465B001344DB000B4408331968DD
:102B8000FB89FA791944394813465B001344DB008A
:102B9000034408331960FA79344913465B0013443F
:102BA000DB000B4408331B68BB602E4B1B78DBB289
:102BB00019462E4A0B465B000B44DB0013440833D6
:102BC0001B68BA689A4237D3264B1B787B737A7B93
:102BD000264913465B001344DB000B4415331B7876
:102BE0003B7313E07A7B214913465B001344DB00FF
:102BF0000B4415331B787B737A7B1C4913465B00AF
:102C00001344DB000B4415331B783B733B7B062BD3
:102C10000BD03A7B154913465B001344DB000B4491
:102C200008331B68BA689A42DCD27A7BFB7911467A
:102C30001846FFF7CFFE0FE00A4B1B78DAB2FB799C
:102C400011461846FFF70CFF064B1B78DAB2064B0D
:102C50001A70044AFB791370FB8918461037BD4679
:102C600080BD00BF7C0300207D030020EC0200201B
:102C70008003002080B485B000AF03460A46FB7194
:102C80001346BB71394B1B78DBB2FA799A4211D1EA
:102C9000364B1B78DAB2364B1A70FA79354913463F
:102CA0005B001344DB000B4415331B78DAB22F4B67
:102CB0001A703EE0FA792F4913465B001344DB009B
:102CC0000B4414331B78FB73FA792A4913465B00D3
:102CD0001344DB000B4415331B78BB73F979FA7B83
:102CE00024480B465B000B44DB00034415331B7880
:102CF000D8B2204913465B001344DB000B44153364
:102D000002461A70BB7B062B13D0F979BA7B19489F
:102D10000B465B000B44DB00034414331B78D8B232
:102D2000144913465B001344DB000B441433024682
:102D30001A70FA790F4913465B001344DB000B4409
:102D40000C3301221A70094B1B78DBB2062B07D11A
:102D5000BB79002B04D1084B4FF0FF321A6000BF43
:102D600000BF1437BD465DF8047B70477C0300202C
:102D70007D030020EC0200208003002080B582B09B
:102D800000AF1A4B1B68B3F1FF3F26D0FFF702FEDE
:102D90007860164B1B687A689A4205D8134B1A68FC
:102DA0007B68D31A7B600AE0114B1B881A467B684C
:102DB000D31A3B600D4B1B683A6813447B600D4B84
:102DC0001B781A467B6802FB03F37B600A4B1B7877
:102DD0001A467B68D3407B6001E000237B607B6800
:102DE0009BB218460837BD4680BD00BF8003002057
:102DF000E6030020E5030020E403002080B582B054
:102E000000AF0346FB80FB88002B08D1FFF7C2FD13
:102E10000246244B1A60032001F0E4FD3EE0FB88EB
:102E2000012B03D8204B1B78012B02D0FB88013BE0
:102E3000FB8000BF1D4B1B681B68DB6803F00403AD
:102E4000002BF7D0194B1B681B68DB68DAB2174BF5
:102E50001B681B6862F49062DA60154B4FF4002225
:102E6000DA60032001F0CCFD124B5B691B0C1B04E4
:102E7000FA88104913434B61FFF78CFD0246094B5A
:102E80001A600A4B1B681B689A68084B1B681B6812
:102E900042F480629A60AFF3008000BF0837BD46FD
:102EA00080BD00BF80030020E4030020E003002079
:102EB000000800580028004080B584B000AF474BA0
:102EC0009B6803F48063B3F5806F08D100BF444B67
:102ED0001B681B68DB6803F00403002BF7D1404B31
:102EE0001B681B689A683E4B1B681B6822F4806253
:102EF0009A603C4B1B78FB73FA7B3B4913465B00A3
:102F00001344DB000B4408331B68BB60FFF736FF3C
:102F10000346FB80FB88BA689A4205D20023BB8136
:102F2000324B01221A704DE0FB88314A128892B26E
:102F300013441A46BB68934206D92D4B1B88BB81AC
:102F40002A4B00221A703DE0BB689AB2FB88D31A64
:102F5000BB81264B01221A7034E0FA7B22491346CA
:102F60005B001344DB000B4408331A68FB889A4269
:102F70000AD2FA7B1C4913465B001344DB000B4466
:102F8000083300221A6013E0FA7B174913465B00EE
:102F90001344DB000B4408331968FB88FA7BC91A19
:102FA000114813465B001344DB00034408331960E7
:102FB000FA7B0D4913465B001344DB000B441533C9
:102FC0001B78FB73FB7B062BC7D1BB891846FFF729
:102FD00015FF00BF1037BD4680BD00BF0028004070
:102FE000E00300207C030020EC020020840300208A
:102FF000E803002080B58AB000AFEFF310837B6157
:103000007B697B6272B65E4B1B681B68CA225A6280
:103010005B4B1B681B6853225A62594B1B681B6829
:103020009A68574B1B681B6822F480629A60554B64
:103030001B7887F8233097F82320534913465B0009
:103040001344DB000B440C331B78DBB2022B70D132
:1030500097F823204C4913465B001344DB000B44D4
:103060001B68FB6197F82320474913465B00134414
:10307000DB000B4410331B68BB61444B1B78DBB295
:10308000002B4ED097F823203F4913465B00134492
:10309000DB000B440D331B78DBB2012B25D197F8F5
:1030A000233001211846FFF7E5FD7B6A3B613B6950
:1030B00083F3108897F82320334913465B001344A9
:1030C000DB000B4404331A6897F823301146184686
:1030D00000F046FA2A4B1B681B68CA225A62284B2A
:1030E0001B681B6853225A6213E07B6AFB60FB6813
:1030F00083F3108897F82330184600F0A7F9204B87
:103100001B681B68CA225A621D4B1B681B6853222E
:103110005A6297F82330FA691946B86900F0D8FA6C
:1031200024E0FFF7C9FE7B6ABB60BB6883F31088AD
:103130001CE000BF124B1B681B68DB6803F0040334
:10314000002BF7D00E4B1B681B68DB68DAB20C4B08
:103150001B681B6862F49062DA600D4B4FF400222A
:10316000DA607B6A7B607B6883F31088044B1B68A2
:103170001B68FF225A6200BF2837BD4680BD00BFD2
:10318000E00300207C030020EC02002084030020E8
:103190000008005880B588B000AF03463960FB7165
:1031A000644A3B681360634B1B681B68CA225A62FF
:1031B000604B1B681B6853225A625F4B9B685E4AD8
:1031C00043F0200393605C4B9B68DBB203F0070382
:1031D000DBB2C3F10403DAB2584B1A70564B1B69C9
:1031E00003F4FE034FF4FE023A613A6992FAA2F246
:1031F000FA60FA687A617A69002A01D1202203E034
:103200007A69B2FA82F2D2B2D340DBB20133DAB2D7
:103210004B4B1A70484B1B699BB2C3F30E039BB216
:1032200001339AB2474B1A80464B1B88013B444AF4
:10323000127802FB03F3A3F5A073404A1278D3403F
:10324000BB61BB694FF6FE72934204D93E4B4FF609
:10325000FF721A8003E0BB699AB23B4B1A804FF4AD
:103260000020FFF785FB4FF40020FFF76DFBFB7993
:10327000002B43D1354B01221A70354B4FF0FF32F2
:103280001A600023FB770CE0FA7F324913465B009B
:103290001344DB000B440C3300221A70FB7F013314
:1032A000FB77FB7F052BEFD92B4B06221A70214BA6
:1032B0001B681B689A681F4B1B681B6822F480629E
:1032C0009A601C4B1B681B68DB68DAB2194B1B68E1
:1032D0001B6862F49062DA60204B4FF40022DA60DF
:1032E000032001F08DFB134B1B681B689A68114B80
:1032F0001B681B6842F480429A600AE00D4B1B6811
:103300001B68DB6803F48063002B02D0032001F00C
:1033100069FB084B1B681B68FF225A6200220621CA
:10332000032001F029FB032001F040FB00BF203700
:10333000BD4680BDE003002000280040E4030020DB
:10334000E5030020E6030020E803002084030020BA
:1033500080030020EC0200207C03002000080058BD
:1033600080B48BB000AFF860B9603B601346FB716E
:10337000002387F82630EFF31083FB61FB693B6283
:1033800072B604E097F82630013387F8263097F8B4
:103390002630052B0CD897F826202B4913465B00C6
:1033A0001344DB000B440C331B78DBB2002BE9D158
:1033B00097F82630062B37D097F826202249134657
:1033C0005B001344DB000B440C3301221A703B6A90
:1033D000BB61BB6983F3108897F826201A4913460E
:1033E0005B001344DB000B441033FA681A6097F853
:1033F0002620154913465B001344DB000B440D33B4
:10340000FA791A7097F826200F4913465B00134487
:10341000DB000B443A681A60BB6897F826201A70E4
:10342000002387F8273007E03B6A7B617B6983F3E1
:103430001088012387F8273097F8273018462C3753
:10344000BD465DF8047B7047EC02002080B586B075
:1034500000AF0346FB71EFF31083FB60FB687B61F9
:1034600072B6032001F0B0FA374B1B681B68CA2202
:103470005A62354B1B681B6853225A62FA793349EA
:1034800013465B001344DB000B440C331B78DBB2A8
:10349000022B48D1FB7900211846FFF7EBFB2C4BA0
:1034A0001B78FB74FB7C062B35D12A4B9B6803F4FD
:1034B0008063B3F5806F08D100BF234B1B681B6886
:1034C000DB6803F00403002BF7D11F4B1B681B685C
:1034D0009A681D4B1B681B6822F480629A6000BFCB
:1034E000194B1B681B68DB6803F00403002BF7D043
:1034F000154B1B681B68DB68DAB2134B1B681B6833
:1035000062F49062DA60144B4FF40022DA60032018
:1035100001F076FA07E0114B1B78DBB2FA7C9A4295
:1035200001D0FFF7C9FC084B1B681B68FF225A62D9
:10353000032001F03BFA7B69BB60BB6883F3108812
:1035400000BF1837BD4680BDE0030020EC0200201C
:103550007C03002000280040000800587D03002064
:1035600080B586B000AF03463960FB71FA793B49FC
:1035700013465B001344DB000B440C331B78DBB2B7
:10358000022B03D1FB791846FFF760FFEFF310839E
:10359000FB60FB687B6172B6032001F015FA304BCB
:1035A0001B681B68CA225A622D4B1B681B6853227A
:1035B0005A62FA79294913465B001344DB000B4435
:1035C0000C3302221A70FA79244913465B00134423
:1035D000DB000B4408333A681A60FA791F49134636
:1035E0005B001344DB000B4404333A681A60FB7938
:1035F0001846FFF795FA03467B821A4B1B787B74BB
:10360000194B1B78DBB27A7C9A4202D0FFF754FC4C
:1036100013E0FA79114913465B001344DB000B44B5
:10362000083319687B8AFA79C91A0C4813465B007B
:103630001344DB00034408331960094B1B681B6803
:10364000FF225A62032001F0B1F97B69BB60BB68BD
:1036500083F3108800BF1837BD4680BDEC02002000
:10366000E00300207C0300207D03002080B586B0AD
:1036700000AFEFF31083BB60BB683B6172B6134BC6
:103680009B6803F48063B3F5806F12D10F4B5B69C5
:10369000FB81FFF773FB0346BB81FA89BB899A4222
:1036A00004D9FA89BB89D31AFB8205E00023FB8287
:1036B00002E04FF6FF73FB823B697B607B6883F31C
:1036C0001088FB8A18461837BD4680BD0028004088
:1036D00080B584B000AFF8600B467A60FB727B68FF
:1036E000984700BF1037BD4680BD000080B582B04E
:1036F00000AF78607B681B681A46084B9A4200D07E
:1037000007E0074B1B68002B02D0054B1B6898474E
:1037100000BF00BF0837BD4680BD00BF0038014074
:103720000C29002080B400AF054BDB69044A43F448
:103730000043D36100BFBD465DF8047B704700BF06
:103740000004005880B483B000AF7860064BDB699A
:1037500023F0700204497B681343CB6100BF0C3730
:10376000BD465DF8047B70470004005880B487B004
:1037700000AF7860184B1B681B0A03F00F03FB6057
:10378000FB68002B08D1154BDB6923F00F021349AE
:103790007B681343CB6119E0FB68063B3B617B68A8
:1037A0003A6913447B617B69002B02DA00237B6159
:1037B00004E07B690F2B01DD0F237B61074BDB6985
:1037C00023F00F027B6905491343CB6100BF1C370F
:1037D000BD465DF8047B70475875FF1F0004005814
:1037E00080B483B000AF7860074BD3F880207B684B
:1037F000DB4305491340C1F8803000BF0C37BD469C
:103800005DF8047B704700BF0008005880B483B0A7
:1038100000AF7860074BD3F890207B68DB43054905
:103820001340C1F8903000BF0C37BD465DF8047BF3
:10383000704700BF0008005880B483B000AF7860C4
:103840004FF0B0430A4AC3F89C204FF0B043D3F87E
:103850009C3023F47C527B681B024FF0B041134331
:10386000C1F89C3000BF0C37BD465DF8047B704743
:10387000FECAFECA80B483B000AF78604FF0B04398
:10388000D3F8903023F018024FF0B0417B68134317
:10389000C1F8903000BF0C37BD465DF8047B70471F
:1038A00080B400AF4FF0B043D3F890304FF0B04247
:1038B00043F48033C2F8903000BFBD465DF8047B0E
:1038C000704780B400AF4FF0B043D3F890304FF062
:1038D000B04223F48033C2F8903000BFBD465DF89B
:1038E000047B704780B400AF4FF0B043D3F89430FE
:1038F00003F08063B3F1806F01D1012300E0002366
:103900001846BD465DF8047B704780B400AF4FF0A9
:10391000B043D3F8943003F08053B3F1805F01D10A
:10392000012300E000231846BD465DF8047B704784
:1039300080B485B000AF78604FF0B0439A6C4FF020
:10394000B0417B6813438B644FF0B0439A6C7B6843
:103950001340FB60FB6800BF1437BD465DF8047B75
:10396000704780B485B000AF78604FF0B043DA6C38
:103970004FF0B0417B681343CB644FF0B043DA6C37
:103980007B681340FB60FB6800BF1437BD465DF8E1
:10399000047B704780B485B000AF78604FF0B043CF
:1039A0001A6D4FF0B0417B6813430B654FF0B04385
:1039B0001A6D7B681340FB60FB6800BF1437BD467F
:1039C0005DF8047B704780B483B000AF78603960E5
:1039D0007B685A683B681B041A437B685A6000BFC7
:1039E0000C37BD465DF8047B704780B483B000AFF0
:1039F000786039607B685A683B681A437B685A6014
:103A000000BF0C37BD465DF8047B704780B483B0BF
:103A100000AF786039607B685A693B681B041A43C1
:103A20007B685A6100BF0C37BD465DF8047B704768
:103A300080B483B000AF786039607B685A693B68B6
:103A40001A437B685A6100BF0C37BD465DF8047BA2
:103A5000704780B483B000AF786039607B683A68A3
:103A60009A6000BF0C37BD465DF8047B704780B498
:103A700083B000AF786039607B683A689A6100BFB4
:103A80000C37BD465DF8047B704780B483B000AF4F
:103A900078607B68FF225A6200BF0C37BD465DF834
:103AA000047B704780B483B000AF78607B68CA2223
:103AB0005A627B6853225A6200BF0C37BD465DF8DC
:103AC000047B704780B483B000AF786039607B6856
:103AD0009B6823F007023B681A437B689A6000BF2B
:103AE0000C37BD465DF8047B7047000080B500AF21
:103AF000134B4FF400421A6100F0CAFD00F031F997
:103B000000F01BF900F024F800F010F900F06BF958
:103B100000F0FFF800F0E0F800F0A2F800F0A8F8DC
:103B200005F0F4FE074A0021074805F059FF024658
:103B3000064B1A60FEF784FC05F01CFFFEE700BF91
:103B40000040005814090108FF3D0008102900201A
:103B500080B5AEB000AF07F17003482200211846CF
:103B600009F047FF07F1540300221A605A609A6077
:103B7000DA601A615A619A613B1D50220021184691
:103B800009F037FF01F028FA0020FFF773FE334BEE
:103B90001B6823F4C063314A43F4007313602F4B56
:103BA0001B6803F4C0633B603B6807233B674FF42B
:103BB00080337B670123BB674FF48073FB6740232F
:103BC000C7F880300023C7F89C3007F1700318460F
:103BD00001F0A2FD0346002B01D000F02DF96F2368
:103BE0007B650223BB650023FB6500233B66002346
:103BF0007B660023BB660023FB6607F154030121AB
:103C0000184602F015F90346002B01D000F014F914
:103C100043F603037B600023FB6100233B624FF408
:103C200080737B644FF48043BB640223FB641023E6
:103C30003B653B1D184602F056FD0346002B01D0A4
:103C400000F0FAF80020FFF77DFD0420FFF78EFD5D
:103C5000FFF768FD00BFB837BD4680BD00040058BF
:103C600080B400AF00BFBD465DF8047B7047000024
:103C700080B500AF164B174A1A60154B00225A60E8
:103C8000134B0F229A60124B47F6FF72DA60104B0B
:103C900000221A610E4B00229A610D4B0022DA615C
:103CA0000B4B00225A610A4802F0A3FF0346002B87
:103CB00001D000F0C1F80748FFF7F4FE00210548E5
:103CC000FFF700FF0348FFF7E0FE00BF80BD00BF25
:103CD0008C2A00200028004080B500AF0420FFF7A8
:103CE00027FE0120FFF724FE0220FFF721FE00221D
:103CF0000F210E2000F040FE0E2000F057FE0022A3
:103D00000F213A2000F038FE3A2000F04FFE00BFAD
:103D100080BD80B500AF0420FFF723FE0120FFF730
:103D200020FE0220FFF71DFE00BF80BD80B400AF63
:103D300000BFBD465DF8047B704780B582B000AF20
:103D4000002005F0FFFC78607B68002B05D07B68C5
:103D50009B791846FFF770FD00BF00BF0837BD46CE
:103D600080BD80B500AF00F027F800F003F800BF79
:103D700080BD000080B500AF4FF48010FFF70AFE51
:103D80003F210C48FFF765FE3F210A48FFF76FFE11
:103D90003F210848FFF717FE3F210648FFF736FE90
:103DA0003F210448FFF721FE3F210248FFF740FE74
:103DB00000BF80BD000C005880B500AFFFF792FD3A
:103DC0000346002B0DD0FFF7A0FD0346002B08D1C2
:103DD00001F002F901F000F9FFF762FDFFF771FD54
:103DE00000BF00BF80BD80B500AF4FF0FF30FFF7D0
:103DF000F7FC6FF05000FFF709FD00BF80BD80B5F4
:103E000082B000AF78604FF0FF320121012005F051
:103E1000EFFEF8E780B582B000AF78607B681B6882
:103E2000044A934201D100F053FC00BF0837BD465D
:103E300080BD00BF0048014080B400AF00BFBD4658
:103E40005DF8047B7047000080B483B000AF7860F9
:103E5000064B1B6823F0070204497B6813430B6081
:103E600000BF0C37BD465DF8047B70470004005866
:103E700080B400AF034B1F229A6100BFBD465DF8BE
:103E8000047B70470004005880B400AF074BD3F8A0
:103E9000883003F40043B3F5004F01D1012300E063
:103EA00000231846BD465DF8047B704700040058A7
:103EB00080B400AF4FF0B0431B684FF0B04243F402
:103EC0008033136000BFBD465DF8047B704780B44B
:103ED00000AF4FF0B0431B6803F40033B3F5003F6D
:103EE00001D1012300E000231846BD465DF8047BA4
:103EF000704780B400AF4FF0B0431B684FF0B04242
:103F000043F48073136000BFBD465DF8047B7047C7
:103F100080B400AF4FF0B0431B6803F48063B3F587
:103F2000806F01D1012300E000231846BD465DF8F3
:103F3000047B704780B483B000AF78604FF0B0432B
:103F40009B6823F003024FF0B0417B6813438B6002
:103F500000BF0C37BD465DF8047B704780B400AFEE
:103F60004FF0B0439B6803F00C031846BD465DF864
:103F7000047B704780B483B000AF78604FF0B043EB
:103F80005B6A23F003024FF0B0417B6813434B623E
:103F900000BF0C37BD465DF8047B704780B400AFAE
:103FA000054B1B69044A23F00403136100BFBD469F
:103FB0005DF8047B704700BF00ED00E080B400AF07
:103FC000054B1B69044A43F00403136100BFBD465F
:103FD0005DF8047B704700BF00ED00E080B483B063
:103FE00000AF786039607B683A68203253F822303D
:103FF000054A934201D0012300E0002318460C3704
:10400000BD465DF8047B70470004008080B485B035
:1040100000AFF860B9607A607B6843F48061FB6848
:10402000BA6843F8221000BF1437BD465DF8047B20
:10403000704780B500AFFFF71BFF0320FFF704FFB9
:10404000FFF7BCFF30BF00BF80BD80B400AF00BF32
:10405000BD465DF8047B704780B500AF00BF03210B
:104060001448FFF7BBFF0346002BF8D10421114889
:10407000FFF7B4FF0346002B0CD1FFF705FF034603
:10408000002B09D0002204210A48FFF7BFFF00F0EF
:104090004FF801E000F04CF8002203210548FFF73B
:1040A000B5FF0220FFF7D0FEFFF788FF30BF00BF4B
:1040B00080BD00BF0014005880B500AF002204216D
:1040C0001348FFF7A3FF00BF03211148FFF786FF46
:1040D0000346002BF8D1FFF741FF0346042B10D114
:1040E000FFF7E6FE00BFFFF7F2FE0346002BFAD013
:1040F0000220FFF71FFF00BFFFF730FF0346082B2A
:10410000FAD1002203210248FFF780FF00BF80BDE3
:104110000014005880B500AFFFF740FF30BF00BF6C
:1041200080BD80B400AF00BFBD465DF8047B704722
:1041300080B500AFFFF7DDFE00BFFFF7E9FE0346E5
:10414000002BFAD00120FFF7F5FE0020FFF712FF49
:1041500000BFFFF703FF0346042BFAD100BF80BD69
:1041600080B483B000AF78604FF0B043D3F89030A4
:1041700023F440724FF0B0417B681343C1F8903094
:1041800000BF0C37BD465DF8047B704780B400AFBC
:104190004FF0B043D3F890304FF0B04243F40043B7
:1041A000C2F8903000BFBD465DF8047B704780B414
:1041B00085B000AF78604FF0B0431A6D4FF0B0415A
:1041C0007B6813430B654FF0B0431A6D7B68134057
:1041D000FB60FB6800BF1437BD465DF8047B704789
:1041E00080B485B000AF78604FF0B0439A6D4FF067
:1041F000B0417B6813438B654FF0B0439A6D7B6889
:104200001340FB60FB6800BF1437BD465DF8047BBC
:10421000704780B500AF4FF40020FFF7C8FF0022C1
:104220000F216FF0010000F0A7FB002205212E20D6
:1042300000F0A2FB2E2000F0B9FB002206212C206A
:1042400000F09AFB002206212D2000F095FB00BF14
:1042500080BD000080B582B000AF78607B681B68CD
:104260000B4A934210D100F0B7FE00F0B5FE4FF4B8
:104270008070FFF775FFFFF789FF4FF48060FFF74D
:10428000AFFF786802F035FF00BF0837BD4680BD3C
:104290000028004080B485B000AF78604FF0B04394
:1042A0001A6E4FF0B0417B6813430B664FF0B0437A
:1042B0001A6E7B681340FB60FB6800BF1437BD4675
:1042C0005DF8047B7047000080B58CB000AF78606B
:1042D0000023FB620023BB62002279681A2000F0F1
:1042E0004BFB1A2000F062FB4FF48020FFF7D2FF57
:1042F00007F1080207F10C031146184601F06CFFA4
:1043000001F054FFF862FB6A124AA2FB03239B0CE4
:10431000013BBB62104B114A1A600F4B40F2E7326F
:10432000DA600D4ABB6A53600B4B00221A610A4BDC
:1043300000229A60084802F012FF0346002B04D1C5
:10434000054802F06DFF034600E0012318463037B0
:10435000BD4680BD83DE1B43102B0020004801407A
:1043600080B400AF00BFBD465DF8047B704780B4E9
:1043700000AFFEE780B400AFFEE780B400AFFEE719
:1043800080B400AFFEE780B400AF00BFBD465DF86B
:10439000047B704780B500AF024800F09EFB00BF71
:1043A00080BD00BFB02A002080B500AF024802F0F7
:1043B00085FF00BF80BD00BF102B002080B500AF7F
:1043C000024803F045F900BF80BD00BF002A00206D
:1043D00080B500AF024803F03BF900BF80BD00BFCD
:1043E0001429002080B500AF00F0D2FD00BF80BDD1
:1043F00080B500AF024800F070FB00BF80BD00BF79
:10440000A029002080B500AF102000F09DFD00BF66
:1044100080BD80B500AF012000F096FD00BF80BDDB
:1044200080B500AF022000F08FFD00BF80BD80B5D9
:1044300000AFFEF7DFFD00BF80BD80B500AFFDF728
:104440003BFD00BF80BD80B500AFFDF7FDFC00BFA8
:1044500080BD80B586B000AFF860B9607A60002397
:104460007B610AE0AFF300800146BB685A1CBA606A
:10447000CAB21A707B6901337B617A697B689A42A0
:10448000F0DB7B6818461837BD4680BD80B586B026
:1044900000AFF860B9607A6000237B6109E0BB6817
:1044A0005A1CBA601B781846AFF300807B69013351
:1044B0007B617A697B689A42F1DB7B681846183722
:1044C000BD4680BD80B483B000AF78604FF0FF334D
:1044D00018460C37BD465DF8047B704780B483B046
:1044E00000AF786039603B684FF400525A60002397
:1044F00018460C37BD465DF8047B704780B483B026
:1045000000AF7860012318460C37BD465DF8047B88
:10451000704780B485B000AFF860B9607A6000235E
:1045200018461437BD465DF8047B704780B584B0EB
:1045300000AF7860114B1B68002B02D10F4B104A63
:104540001A600E4B1B68FB600C4B1A687B681344A7
:104550006A46934207D909F017FA02460C23136002
:104560004FF0FF3306E0054B1A687B681344034A9B
:104570001360FB6818461037BD4680BDEC03002071
:10458000A82B002080B400AF264B00229A60254B58
:10459000D3F88830234A43F47003C2F888304FF0D0
:1045A000B0431B684FF0B04243F0010313604FF07B
:1045B000B0434FF4E0229A604FF0B0431A684FF0D6
:1045C000B041194B13400B604FF0B043D3F8943017
:1045D0004FF0B04223F00503C2F894304FF0B043DF
:1045E000D3F898304FF0B04223F00103C2F898306E
:1045F0004FF0B0430D4ADA604FF0B0430B4A1A61F6
:104600004FF0B0431B684FF0B04223F48023136097
:104610004FF0B04300229A6100BFBD465DF8047BB5
:10462000704700BF00ED00E0FBFEF6FA0010042228
:1046300080B400AF054B5B68044A23F0010353606C
:1046400000BFBD465DF8047B704700BF002004E05A
:1046500080B400AF054B5B68044A23F0020353604B
:1046600000BFBD465DF8047B704700BF002004E03A
:1046700080B400AF054B5B68044A23F00403536029
:1046800000BFBD465DF8047B704700BF002004E01A
:1046900080B582B000AF0023FB710C4B1B680B4A46
:1046A00043F480731360032000F05BF90020FFF7F0
:1046B0000BFE0346002B02D00123FB7101E0FFF744
:1046C000A8FDFB7918460837BD4680BD004000585C
:1046D00080B400AF064B1B781A46064B1B68134488
:1046E000044A136000BFBD465DF8047B704700BFFD
:1046F0001C0000205C2B002080B400AF034B1B6823
:104700001846BD465DF8047B704700BF5C2B002057
:1047100080B400AF034B1B681846BD465DF8047BB0
:10472000704700BF1800002080B500AFFFF780FF82
:1047300000BF80BD80B500AFFFF78AFF00BF80BD1E
:1047400080B500AFFFF794FF00BF80BD80B485B097
:1047500000AF78607B6803F00703FB600C4BDB68FD
:10476000BB60BA684FF6FF031340BB60FB681A02D8
:10477000BB68134343F0BF6343F40033BB60044A98
:10478000BB68D36000BF1437BD465DF8047B70473B
:1047900000ED00E080B400AF044BDB681B0A03F0BF
:1047A00007031846BD465DF8047B704700ED00E046
:1047B00080B483B000AF0346FB7197F90730002B3C
:1047C0000BDBFB7903F01F02074997F907305B0900
:1047D000012000FA02F241F8232000BF0C37BD4649
:1047E0005DF8047B704700BF00E100E080B483B057
:1047F00000AF0346FB7197F90730002B10DBFB7904
:1048000003F01F02094997F907305B09012000FAFC
:1048100002F2203341F82320BFF34F8FBFF36F8F95
:1048200000BF0C37BD465DF8047B704700E100E037
:1048300080B483B000AF0346FB7197F90730002BBB
:104840000CDBFB7903F01F02074997F907305B097E
:10485000012000FA02F2403341F8232000BF0C3758
:10486000BD465DF8047B704700E100E080B483B092
:1048700000AF0346FB7197F90730002B0CDBFB7987
:1048800003F01F02074997F907305B09012000FA7E
:1048900002F2603341F8232000BF0C37BD465DF8BB
:1048A000047B704700E100E080B483B000AF0346B2
:1048B0003960FB7197F90730002B0ADB3B68DAB2ED
:1048C0000C4997F907301201D2B20B4483F8002348
:1048D0000AE03B68DAB20849FB7903F00F03043BB6
:1048E0001201D2B20B441A7600BF0C37BD465DF8F8
:1048F000047B704700E100E000ED00E080B489B087
:1049000000AFF860B9607A60FB6803F00703FB61F1
:10491000FB69C3F10703042B28BF0423BB61FB69B8
:104920000433062B02D9FB69033B00E000237B61C3
:104930004FF0FF32BB6902FA03F3DA43BB681A4057
:104940007B699A404FF0FF317B6901FA03F3D94349
:104950007B680B40134318462437BD465DF8047B43
:10496000704780B582B000AF78607868FFF7EEFEE0
:1049700000BF0837BD4680BD80B586B000AF034696
:10498000B9607A60FB73FFF705FF78617A68B968F0
:104990007869FFF7B3FF024697F90F3011461846C2
:1049A000FFF782FF00BF1837BD4680BD80B582B0DB
:1049B00000AF0346FB7197F907301846FFF7F8FE82
:1049C00000BF0837BD4680BD80B582B000AF03464A
:1049D000FB7197F907301846FFF708FF00BF08374B
:1049E000BD4680BD80B582B000AF0346FB7197F92C
:1049F00007301846FFF71CFF00BF0837BD4680BDD3
:104A000080B582B000AF0346FB7197F907301846B6
:104A1000FFF72CFF00BF0837BD4680BD80B584B0CE
:104A200000AF78600023FB737B6893F82530DBB21E
:104A3000022B05D07B680422DA630123FB7347E075
:104A40007B681B681A687B681B6822F00E021A607C
:104A50007B681B681A687B681B6822F001021A6079
:104A60007B689B6C1A687B689B6C22F480721A606E
:104A70007B685B6C03F01C027B681B6C012101FAF4
:104A800002F25A607B68DB6C7A68126D5A607B6850
:104A90005B6D002B0CD07B685B6D1A687B685B6D6F
:104AA00022F480721A607B689B6D7A68D26D5A60BE
:104AB0007B68012283F825207B68002283F824206C
:104AC0007B689B6B002B03D07B689B6B7868984757
:104AD000FB7B18461037BD4680BD80B584B000AF63
:104AE00078607B681B6C1B68FB607B681B681B68BD
:104AF000BB607B685B6C03F01C0304229A40FB687C
:104B00001340002B26D0BB6803F00403002B21D0F8
:104B10007B681B681B6803F02003002B07D17B68B0
:104B20001B681A687B681B6822F004021A607B68A5
:104B30005B6C03F01C027B681B6C042101FA02F21F
:104B40005A607B681B6B002B71D07B681B6B78688D
:104B500098476CE07B685B6C03F01C0302229A4070
:104B6000FB681340002B2ED0BB6803F00203002B20
:104B700029D07B681B681B6803F02003002B0BD136
:104B80007B681B681A687B681B6822F00A021A603F
:104B90007B68012283F825207B685B6C03F01C0294
:104BA0007B681B6C022101FA02F25A607B680022CA
:104BB00083F824207B68DB6A002B38D07B68DB6AB3
:104BC0007868984733E07B685B6C03F01C0308222D
:104BD0009A40FB681340002B2AD0BB6803F00803FF
:104BE000002B25D07B681B681A687B681B6822F045
:104BF0000E021A607B685B6C03F01C027B681B6C06
:104C0000012101FA02F25A607B680122DA637B68B3
:104C1000012283F825207B68002283F824207B680A
:104C20005B6B002B04D07B685B6B7868984700BF98
:104C300000BF1037BD4680BD80B487B000AF78603C
:104C4000396000237B614CE13B681A6801217B6974
:104C500001FA03F31340FB60FB68002B00F03E8178
:104C60003B685B68012B0BD03B685B68022B07D06D
:104C70003B685B68112B03D03B685B68122B30D11B
:104C80007B689B683B617B695B00032202FA03F34C
:104C9000DB433A6913403B613B68DA687B695B0040
:104CA00002FA03F33A6913433B617B683A699A60FD
:104CB0007B685B683B6101227B6902FA03F3DB439B
:104CC0003A6913403B613B685B681B0903F00102D2
:104CD0007B6902FA03F33A6913433B617B683A69E3
:104CE0005A607B68DB683B617B695B00032202FAE8
:104CF00003F3DB433A6913403B613B689A687B6985
:104D00005B0002FA03F33A6913433B617B683A693B
:104D1000DA603B685B68022B03D03B685B68122B50
:104D200023D17B69DA087B68083253F822303B6173
:104D30007B6903F007039B000F2202FA03F3DB43B6
:104D40003A6913403B613B681A697B6903F00703CA
:104D50009B0002FA03F33A6913433B617B69DA086B
:104D60007B680832396943F822107B681B683B6115
:104D70007B695B00032202FA03F3DB433A691340C9
:104D80003B613B685B6803F003027B695B0002FAEE
:104D900003F33A6913433B617B683A691A603B68E5
:104DA0005B6803F08053002B00F09880544A7B69C5
:104DB0009B08023352F823303B617B6903F0030305
:104DC0009B000F2202FA03F3DB433A6913403B6175
:104DD0007B68B3F1904F19D07B684A4A934213D055
:104DE0007B68494A93420DD07B68484A934207D07A
:104DF0007B68474A934201D1042308E0072306E079
:104E0000032304E0022302E0012300E000237A6987
:104E100002F00302920093403A6913433B61384920
:104E20007B699B0802333A6941F82320394BD3F858
:104E300080303B61FB68DB433A6913403B613B6870
:104E40005B6803F48033002B03D03A69FB6813439B
:104E50003B61304A3B69C2F880302E4BD3F8843036
:104E60003B61FB68DB433A6913403B613B685B682D
:104E700003F40033002B03D03A69FB6813433B6112
:104E8000244A3B69C2F88430224B1B683B61FB68B3
:104E9000DB433A6913403B613B685B6803F4801372
:104EA000002B03D03A69FB6813433B61194A3B6905
:104EB0001360184B5B683B61FB68DB433A69134046
:104EC0003B613B685B6803F40013002B03D03A6935
:104ED000FB6813433B610F4A3B6953607B690133B5
:104EE0007B613B681A687B6922FA03F3002B7FF42D
:104EF000ABAE00BF1C37BD465DF8047B704700BFFA
:104F0000000001400004004800080048000C004870
:104F1000001000480008005880B483B000AF7860EB
:104F20000B467B8013467B707B78002B03D07A88FE
:104F30007B689A6102E07A887B689A6200BF0C37CE
:104F4000BD465DF8047B704780B582B000AF034674
:104F5000FB80084BDA68FB881340002B06D0054A1B
:104F6000FB88D360FB88184600F006F800BF0837BE
:104F7000BD4680BD0008005880B483B000AF034632
:104F8000FB8000BF0C37BD465DF8047B7047000016
:104F900080B582B000AF0A4BDB687B60084B1A68B3
:104FA0007B68DB43064913400B60054A7B6853600E
:104FB000786800F007F800BF0837BD4680BD00BF25
:104FC0000015005880B483B000AF786000BF0C3784
:104FD000BD465DF8047B704780B400AF054B1B688D
:104FE000044A43F48073136000BFBD465DF8047B40
:104FF000704700BF0004005880B400AF044B1B682A
:1050000003F4C0631846BD465DF8047B704700BFDB
:105010000004005880B400AF4FF0B0431B6803F4A5
:105020008013B3F5801F01D1012300E0002318464F
:10503000BD465DF8047B704780B400AF4FF0B043CD
:105040001B684FF0B04243F48033136000BFBD468D
:105050005DF8047B704780B400AF4FF0B0431B682D
:105060004FF0B04223F48033136000BFBD465DF8BB
:10507000047B704780B400AF4FF0B0431B6803F46B
:105080000033B3F5003F01D1012300E000231846AF
:10509000BD465DF8047B704780B400AF4FF0B0436D
:1050A0001B684FF0B04243F48073136000BFBD46ED
:1050B0005DF8047B704780B400AF4FF0B0431B68CD
:1050C0004FF0B04223F48073136000BFBD465DF81B
:1050D000047B704780B400AF4FF0B0431B6803F40B
:1050E0008063B3F5806F01D1012300E000231846EF
:1050F000BD465DF8047B704780B483B000AF786034
:105100004FF0B0435B6823F0FE427B681B064FF014
:10511000B04113434B6000BF0C37BD465DF8047BC4
:10512000704780B400AF4FF0B043D3F898304FF0E1
:10513000B04243F00103C2F8983000BFBD465DF8AD
:10514000047B704780B400AF4FF0B043D3F8983081
:105150004FF0B04223F00103C2F8983000BFBD46C3
:105160005DF8047B704780B400AF4FF0B043D3F8D4
:10517000983003F00203022B01D1012300E0002349
:105180001846BD465DF8047B704780B400AF4FF011
:10519000B043D3F890304FF0B04243F00103C2F86F
:1051A000903000BFBD465DF8047B704780B400AF0F
:1051B0004FF0B043D3F890304FF0B04223F00103EA
:1051C000C2F8903000BFBD465DF8047B704780B4E4
:1051D00000AF4FF0B043D3F890304FF0B04243F0FF
:1051E0000403C2F8903000BFBD465DF8047B7047F1
:1051F00080B400AF4FF0B043D3F890304FF0B042DE
:1052000023F00403C2F8903000BFBD465DF8047B74
:10521000704780B400AF4FF0B043D3F8903003F044
:105220000203022B01D1012300E000231846BD46F2
:105230005DF8047B704780B400AF4FF0B043D3F803
:1052400094304FF0B04243F00103C2F8943000BFF5
:10525000BD465DF8047B704780B400AF4FF0B043AB
:10526000D3F894304FF0B04223F00103C2F89430E9
:1052700000BFBD465DF8047B704780B400AF4FF0BF
:10528000B043D3F8943003F00203022B01D1012381
:1052900000E000231846BD465DF8047B704780B4EB
:1052A00000AF4FF0B043D3F894304FF0B04243F02A
:1052B0000403C2F8943000BFBD465DF8047B70471C
:1052C00080B400AF4FF0B043D3F894304FF0B04209
:1052D00023F00403C2F8943000BFBD465DF8047BA0
:1052E000704780B400AF4FF0B043D3F8943003F070
:1052F0000803082B01D1012300E000231846BD4616
:105300005DF8047B704780B483B000AF78604FF0E5
:10531000B043D3F8943023F470627B681B024FF0E3
:10532000B0411343C1F8943000BF0C37BD465DF85F
:10533000047B704780B400AF4FF0B0431B684FF060
:10534000B04243F00103136000BFBD465DF8047B2B
:10535000704780B400AF4FF0B0431B684FF0B042CD
:1053600023F00103136000BFBD465DF8047B704766
:1053700080B400AF4FF0B0431B6803F00203022B70
:1053800001D1012300E000231846BD465DF8047BEF
:10539000704780B483B000AF78604FF0B0431B68B3
:1053A00023F0F0024FF0B0417B6813430B6000BF65
:1053B0000C37BD465DF8047B704780B483B000AF06
:1053C0004FF0B0431B6803F0F0037B607B68B02BA9
:1053D00001D9B0237B607B6818460C37BD465DF869
:1053E000047B704780B483B000AF78604FF0B04367
:1053F0005B6823F47F427B681B024FF0B04113438C
:105400004B6000BF0C37BD465DF8047B704780B42D
:1054100083B000AF78604FF0B0439B6823F0030285
:105420004FF0B0417B6813438B6000BF0C37BD4623
:105430005DF8047B704780B400AF4FF0B0439B68C9
:1054400003F00C031846BD465DF8047B704780B43A
:1054500083B000AF78604FF0B0439B6823F0F00258
:105460004FF0B0417B6813438B6000BF0C37BD46E3
:105470005DF8047B704780B483B000AF78604FF074
:10548000B043D3F8083123F0F0024FF0B0417B680D
:105490001343C1F8083100BF0C37BD465DF8047BEB
:1054A000704780B483B000AF78604FF0B043D3F85A
:1054B000083123F00F027B681B094FF0B041134302
:1054C000C1F8083100BF0C37BD465DF8047B70475A
:1054D00080B483B000AF78604FF0B0439B6823F492
:1054E000E0624FF0B0417B6813438B6000BF0C3724
:1054F000BD465DF8047B704780B483B000AF786030
:105500004FF0B0439B6823F460524FF0B0417B688A
:1055100013438B6000BF0C37BD465DF8047B7047BA
:1055200080B400AF4FF0B0439B6803F0F00318461F
:10553000BD465DF8047B704780B400AF4FF0B043C8
:10554000D3F8083103F0F0031846BD465DF8047B3C
:10555000704780B400AF4FF0B043D3F808311B015F
:1055600003F0F0031846BD465DF8047B704780B435
:1055700000AF4FF0B0439B6803F4E0631846BD46AC
:105580005DF8047B704780B400AF4FF0B0439B6878
:1055900003F460531846BD465DF8047B704780B441
:1055A00000AF4FF0B0431B684FF0B04243F0807340
:1055B000136000BFBD465DF8047B704780B400AF48
:1055C0004FF0B0431B684FF0B04223F0807313607C
:1055D00000BFBD465DF8047B704780B400AF4FF05C
:1055E000B0431B6803F00073B3F1007F01D10123C6
:1055F00000E000231846BD465DF8047B704780B488
:1056000000AF4FF0B043DB681B0A03F07F0318467E
:10561000BD465DF8047B704780B400AF4FF0B043E7
:10562000DB6803F060431846BD465DF8047B7047B5
:1056300080B400AF4FF0B043DB6803F0700318464E
:10564000BD465DF8047B704780B400AF4FF0B043B7
:10565000DB6803F003031846BD465DF8047B704722
:1056600080B400AF4FF0B0439B6803F48033B3F5D0
:10567000803F01D1012300E000231846BD465DF8BC
:10568000047B704780B400AF4FF0B043D3F80831CB
:1056900003F40033B3F5003F01D1012300E0002300
:1056A0001846BD465DF8047B704780B400AF4FF0EC
:1056B000B043D3F8083103F48033B3F5803F01D110
:1056C000012300E000231846BD465DF8047B7047C7
:1056D00080B400AF4FF0B0439B6803F40033B3F5E0
:1056E000003F01D1012300E000231846BD465DF8CC
:1056F000047B704780B400AF4FF0B0439B6803F465
:105700008023B3F5802F01D1012300E00023184648
:10571000BD465DF8047B704790B58DB000AF7860F2
:105720007B68002B01D101237EE37B681B6803F0BB
:105730002003002B00F09280FFF77DFEF862FFF758
:1057400083FFB862FB6A002B05D0FB6A0C2B4CD19F
:10575000BB6A012B49D1FFF70BFE0346002B05D096
:105760007B68DB69002B01D101235DE37B685C6A08
:10577000FFF723FE03469C4214D97B685B6A1846F8
:1057800000F05CFD0346002B01D001234CE37B6855
:105790005B6A1846FFF7FDFD7B681B6A1846FFF73A
:1057A00021FE13E07B685B6A1846FFF7F2FD7B6819
:1057B0001B6A1846FFF716FE7B685B6A184600F006
:1057C0003DFD0346002B01D001232DE300F0DAFC60
:1057D0000246B34B1A60B34B1B681846FEF774FDC4
:1057E0000346002B39D001231EE37B68DB69002BC5
:1057F0001ED0FFF79FFDFEF77FFF786208E0FEF7FF
:105800007BFF02467B6AD31A022B01D903230BE3E9
:10581000FFF7AEFD0346002BF1D07B685B6A1846AC
:10582000FFF7B7FD7B681B6A1846FFF7DBFD15E045
:10583000FFF78FFDFEF760FF786208E0FEF75CFF80
:1058400002467B6AD31A022B01D90323ECE2FFF74D
:105850008FFD0346002BF1D100E000BF7B681B6881
:1058600003F00103002B4ED0FFF7E5FD3862FFF790
:10587000EBFEF8613B6A082B05D03B6A0C2B0DD17F
:10588000FB69032B0AD1FFF7F5FB0346002B39D048
:105890007B685B68002B35D10123C5E27B685B68C0
:1058A000B3F5803F02D1FFF7C7FB01E0FFF7D3FB61
:1058B0007B685B68002B12D0FEF71EFF786208E061
:1058C000FEF71AFF02467B6AD31A642B01D9032321
:1058D000AAE2FFF7CFFB0346002BF1D013E0FEF75F
:1058E0000BFF786208E0FEF707FF02467B6AD31AD7
:1058F000642B01D9032397E2FFF7BCFB0346002B7F
:10590000F1D100E000BF7B681B6803F00203002BAD
:1059100051D0FFF790FDB861FFF796FE7861BB6943
:10592000042B05D0BB690C2B13D17B69022B10D142
:10593000FFF7D0FB0346002B05D07B68DB68002B0C
:1059400001D1012370E27B681B691846FFF7D4FB85
:1059500031E07B68DB68002B19D0FFF79DFBFEF779
:10596000CBFE786208E0FEF7C7FE02467B6AD31AD8
:10597000022B01D9032357E2FFF7ACFB0346002BB0
:10598000F1D07B681B691846FFF7B6FB13E0FFF701
:1059900092FBFEF7B1FE786208E0FEF7ADFE02462C
:1059A0007B6AD31A022B01D903233DE2FFF792FB56
:1059B0000346002BF1D17B681B6803F00803002B22
:1059C00006D17B681B6803F01003002B00F0A38056
:1059D0007B685B69002B76D07B681B6803F0100343
:1059E000002B46D0FFF749FC0346002B13D1FFF7ED
:1059F00022FCFEF781FE786208E0FEF77DFE02469B
:105A00007B6AD31A022B01D903230DE2FFF735FC81
:105A10000346002BF1D0FFF742FCFEF76DFE7862E3
:105A200008E0FEF769FE02467B6AD31A032B01D910
:105A30000323F9E1FFF755FC0346002BF1D07B6807
:105A40009B691846FFF75FFCFFF706FCFEF754FE64
:105A5000786208E0FEF750FE02467B6AD31A022BFA
:105A600001D90323E0E1FFF708FC0346002BF1D145
:105A700051E0FFF7E0FBFEF73FFE786208E0FEF73B
:105A80003BFE02467B6AD31A022B01D90323CBE1EA
:105A9000FFF7F3FB0346002BF1D0FFF711FC0CE0FE
:105AA0001400002018000020FEF726FE02467B6A44
:105AB000D31A032B01D90323B6E1FFF712FC0346E7
:105AC000002BF1D127E0FFF7FBFBFEF715FE786214
:105AD00008E0FEF711FE02467B6AD31A032B01D9B8
