:020000040800F2
:100000000000032039050008D5130008D7130008A5
:10001000D9130008DB130008DD13000800000000FE
:10002000000000000000000000000000DF130008D6
:10003000E113000800000000E3130008E5130008C6
:100040008D0500088D0500088D05000825140008A1
:100050008D0500088D0500081F1400088D05000897
:100060008D0500088D050008191400088D0500088D
:100070008D0500088D050008E91300088D050008AE
:100080008D0500088D0500088D0500088D05000808
:100090008D0500088D0500088D0500088D050008F8
:1000A0008D0500088D0500088D0500088D050008E8
:1000B0008D0500088D0500088D0500088D050008D8
:1000C0008D0500088D0500088D0500088D050008C8
:1000D000F5130008011400088D0500088D050008BF
:1000E0008D0500088D0500088D0500088D050008A8
:1000F0002D140008291400088D0500088D0500083E
:100100008D0500088D0500088D0500088D05000887
:100110008D0500088D0500088D0500088D05000877
:100120008D0500088D0500080D1400088D050008D8
:0C0130008D0500088D0500088D050008F5
:1001400010B5054C237833B9044B13B10448AFF311
:1001500000800123237010BD340200200000000045
:10016000686F000808B5034B1BB103490348AFF3A0
:10017000008008BD0000000038020020686F000801
:1001800001F0FF01102A2BDB10F0070F08D010F848
:10019000013B013A8B422DD010F0070F42B3F6D14C
:1001A000F0B441EA012141EA014122F007047FF065
:1001B00000070023F0E80256083C85EA010586EABC
:1001C000010685FA47F5A3FA87F586FA47F6A5FAF8
:1001D00087F68EB9EED1F0BC01F0FF0102F0070204
:1001E00032B110F8013B013A83EA010313B1F8D1AF
:1001F0000020704701387047002D06BF3546033890
:10020000073815F0010F07D1013015F4807F02BFC8
:10021000013015F4C03F0130F0BC0138704700BF19
:1002200053B94AB9002908BF00281CBF4FF0FF315D
:100230004FF0FF3000F072B9ADF1080C6DE904CE5B
:1002400000F006F8DDF804E0DDE9022304B07047B1
:100250002DE9F047089E04468846002B4BD18A4280
:10026000154667D9B2FA82F24AB1C2F1200701FA03
:1002700002F320FA07F7954047EA030894404FEA53
:10028000154E230CB8FBFEF71FFA85FC0EFB1788F2
:1002900043EA084307FB0CF1994209D9EB1807F12F
:1002A000FF3080F01B81994240F21881023F2B44BD
:1002B0005B1AA4B2B3FBFEF00EFB103344EA034416
:1002C00000FB0CFCA44509D92C1900F1FF3380F088
:1002D0000781A44540F2048102382C4440EA0740DB
:1002E000A4EB0C0400271EB1D4400023C6E9004350
:1002F0003946BDE8F0878B4209D9002E00F0EB802B
:100300000027C6E9000138463946BDE8F087B3FA50
:1003100083F7002F47D18B4202D3824200F2FA804A
:10032000841A61EB030301209846002EE0D0C6E951
:100330000048DDE702B9FFDEB2FA82F2002A40F09F
:100340008F80491B4FEA154E1FFA85F80127B1FB34
:10035000FEFC230C0EFB1C1143EA014308FB0CF1CD
:10036000994207D9EB180CF1FF3002D2994200F202
:10037000CD808446591AA3B2B1FBFEF00EFB1014D7
:1003800043EA044408FB00F8A04507D92C1900F102
:10039000FF3302D2A04500F2B6801846A4EB080451
:1003A00040EA0C409FE7C7F1200CBB4022FA0CFE4C
:1003B0004EEA030E01FA07F420FA0CF521FA0CF3C9
:1003C0004FEA1E482543B3FBF8F92C0C08FB193300
:1003D0001FFA8EFA44EA034309FB0AF49C4202FA2C
:1003E00007F200FA07F10BD91EEB030309F1FF3006
:1003F00080F087809C4240F28480A9F10209734416
:100400001B1BADB2B3FBF8F008FB103345EA034405
:1004100000FB0AFAA24508D91EEB040400F1FF33E1
:100420006BD2A24569D90238744440EA0940A0FB66
:100430000289A4EB0A044C45C2464B4654D351D022
:10044000002E69D0B1EB0A0564EB030404FA0CFC3E
:10045000FD40FC404CEA0505C6E90054002747E78B
:10046000C2F1200320FA03F7954001FA02F021FAC5
:1004700003F34FEA154E3843010CB3FBFEF71FFAA6
:1004800085F80EFB173341EA034107FB08F38B4263
:1004900004FA02F407D9691807F1FF3C2FD28B4206
:1004A0002DD9023F2944CB1A81B2B3FBFEF00EFBDB
:1004B000103341EA034100FB08F38B4207D9691866
:1004C00000F1FF3C17D28B4215D902382944C91AD2
:1004D00040EA07473BE73746304609E70746E7E685
:1004E0001846FBE64145ABD2B8EB020A69EB0E02B7
:1004F00001381346A4E76046E9E7184695E76746E2
:10050000D1E781467CE702382C4447E7ACF1020C86
:100510002B442FE7384608E73746E9E6704700BF27
:10052000D458C4500433C4188C42F9D370470360C4
:1005300004308842FBD370470C4885460C480D496F
:100540000D4A0023FFF7EFFF0C480D490023FFF78A
:10055000F0FF0C480C490023FFF7EBFF01F01CFDF6
:1005600005F082FD00F016FDFEE70000000003200C
:1005700004000020B00000201C7900083402002094
:100580000C160020D0010320580A0320FEE770B5A6
:100590000E4615460C46A31B9D4201DC284670BD45
:1005A000AFF3008004F8010BF5E7000008B50A4B33
:1005B0001968024609B90949196018686946024470
:1005C0008A4206D905F04AFD0C2303604FF0FF3044
:1005D00008BD1A60FCE700BF500200201016002082
:1005E0004FF0FF3070474FF400534B6000207047CE
:1005F00001207047002070474FF0B04382B0DA6CA2
:100600000243DA64DB6C18400190019B02B0704732
:100610004FF0B04382B0D3F84C210243C3F84C21D1
:10062000D3F84C3118400190019B02B07047000094
:10063000F0B587B001F088FD01F08EFD344A354FEA
:10064000D2F8903043F48033C2F8903004F0C6FD05
:100650001422002101A805F036FD00232E48DFF802
:10066000BCC01C461D461E4600EBC302917951B129
:1006700050F83310B94244D0614545D0B1F1904FA4
:1006800001D1928816430133222BEDD1012103239E
:10069000029104938EB108460196FFF7ADFF08461C
:1006A000FFF7B6FF01A94FF0904001F099FF00223B
:1006B00031464FF0904002F049F87DB1022001959B
:1006C000FFF79AFF0220FFF7A3FF01A9114801F0ED
:1006D00087FF002229460F4802F038F87CB1042039
:1006E0000194FFF789FF0420FFF792FF01A90B484F
:1006F00001F076FF00222146084802F027F807B0F3
:10070000F0BD92881543BEE792881443BBE700BF53
:100710000008005800040048806F000800080048E6
:1007200070B50C4B88B001AA03F11806154618687D
:100730005968144603C40833B3422246F7D11988D6
:100740009B782180A37005F059FB284604F03AFFFE
:1007500008B070BD9070000800F0F0BC13460A4667
:100760000146002000F06ABB704708B5FFF7D8FFCC
:1007700000F02AFF00210120BDE8084005F06ABB17
:1007800010B54FF0B04288B09368224C43F4004358
:10079000936005F057FB2049002000F047F9FFF770
:1007A00047FF0121084605F055FB002001F064FBDE
:1007B000012001F061FB022001F05EFB012001F04D
:1007C00083FB0121002001F09BFB0121084601F081
:1007D00097FB05F033FA114A0021102005F06CFB5D
:1007E00069460F4B0F480094019304F013FF04F582
:1007F0008673029304F50673039302A840F23C53F8
:1008000004F549740593049405F0CAFA05F014FA46
:1008100008B010BDD801032038150020615600082B
:10082000690700086B07000870474FF0FF3005F0BC
:100830008FBB0021102005F04FBB022005F07ABBD2
:10084000022005F0F1BB022807D0102803D00128B0
:1008500005D101F0F3B801F0EFB801F0F3B870473B
:10086000054A906A936A80B29BB2984200D1704761
:10087000916A18468BB2F8E700280040F0B5174B94
:100880001A7882424FF0180415D11A78D2B25A70F1
:1008900004FB0032527ED2B21A70182202FB0030E2
:1008A000012202741A78062A04D119B94FF0FF32D6
:1008B000C3F89420F0BD04FB00352E7E6A7E6F7E67
:1008C00004FB0636D2B2FFB2062A77761FBF2D7E12
:1008D00004FB0232EDB21576DFE700BFB000002066
:1008E00010B50D4CD4F89430013313D0FFF7B8FF96
:1008F000D4F894308342094B3BBFD4F894101A8843
:10090000D4F894205218101A9A78DB785043D840C3
:1009100080B210BD0020FBE7B0000020580200208C
:100920002DE9F0413D4E3E4BD6F804809A68D8F848
:10093000003012F4806F03D0DA6812F0040FFAE787
:100940009A68384D22F480629A602F781823FFB29B
:1009500003FB0753DC68FFF7C3FFA04207D901235D
:1009600085F89830002318244FF0000C1BE03389E1
:100970000344A34239BF33890022231A012234BF22
:100980009BB29BB285F89820EDE704FB075204FB6D
:100990000757D168884297BFD168C2F80CC0091ABE
:1009A000D1607F7EFFB2062FEFD143B9FFF758FF2A
:1009B000C5F894000320BDE8F04101F053BC012BC1
:1009C00002D8F278012A26D0013B9CB2D8F8003038
:1009D000DA685207FCD5D968C9B261F49061D96070
:1009E000114B4FF40022DA60032001F04BFC0C4B5A
:1009F0005A69120C120422435A61FFF731FF7368DF
:100A0000C5F894001A68936843F480639360AFF369
:100A10000080BDE8F0811446D8E700BF58020020EE
:100A200000280040B00000200008005870B50D6894
:100A30003E4E3F4CCA236B6253236B62B3686160C6
:100A400043F02003B360B36803F00703C3F104036A
:100A5000D9B2E17032694FF4FE0393FAA3F3B3FA0B
:100A600083F302F4FE02DA400132D2B2A27033699B
:100A7000C3F30E0301332380013B5343A3F5A0735B
:100A8000CB404FF6FE72934288BF4FF6FF73294A60
:100A900098BF9BB22381136843F400231360D2F8FC
:100AA000803043F40023C2F88030002837D1224B35
:100AB000012183F898104FF0FF31C3F894100621FC
:100AC000187483F8280083F8400083F8580083F8EE
:100AD000700083F888001970AB6823F48063AB6002
:100AE000EB68DBB263F49063EB604FF40023D360F8
:100AF000032001F0C7FB63681A68936843F48043DE
:100B0000936063681B68FF2203215A620846002233
:100B100001F03CFB0320BDE8704001F06BBBEB68CB
:100B20005B05EED5032001F09DFBEAE700280040BD
:100B30005802002000080058B00000202DE9F047BE
:100B4000EFF3108772B6DFF8449000254FF0180AD3
:100B50000AFB05945FFA85FE94F810C00CF0FF06BE
:100B6000BCF1000F0BD10125257487F3108860615B
:100B700062743046636081F800E0BDE8F0870135BB
:100B8000062DE5D187F310880120F6E7B00000209C
:100B90002DE9F0418046EFF3108572B6234C244EC8
:100BA000032001F035FB67683B68CA225A62532272
:100BB0005A62182303FB08631B7C022B24D10021FB
:100BC0004046FFF75BFE3378DBB2062B27D1194B8B
:100BD0009A683B6812F4806F03D0DA6812F0040F51
:100BE000FAE79A6822F480629A60DA685207FCD5C4
:100BF000DA68D2B262F49062DA600F4B4FF40022EE
:100C0000DA60032001F03EFB63681B68FF225A6232
:100C1000032001F0EFFA85F31088BDE8F0817278C7
:100C20009A42F1D0FFF77CFEEEE700BF58020020A9
:100C3000B000002000280040000800582DE9F843CB
:100C40004B4C182303FB004305461B7C022B0F462D
:100C500001D1FFF79DFFEFF3108872B6032001F07A
:100C6000D7FA444A53681B68CA211826596206FB02
:100C7000054953215962022389F81030C9F80C70D4
:100C8000C9F808702378DBB2062B17461BD12278EF
:100C9000D2B26270257089F819304FF0FF33C4F872
:100CA00094300020237862789A425AD0FFF738FEB9
:100CB0007B681B68FF225A62032001F09BFA88F3CD
:100CC0001088BDE8F883FFF70BFED9F80C30034419
:100CD000C9F80C30D9F80C10237806FB0343DB6805
:100CE000994223D32378DBB206FB0342527ED2B271
:100CF000062A04D006FB0242D268914212D2182181
:100D000001FB0342527ED2B2062A1CBF01FB024104
:100D10000D76182101FB05467276337601FB0343FD
:100D20005D76BFE706FB03435B7EDCE72278237832
:100D3000D2B29A4206FB02F30FD02344197EC9B205
:100D400006FB0146757689F8192089F818101D767A
:100D50002378DBB263702570A4E789F81920234457
:100D6000F5E7182303FB0544E368181AE0609FE7E2
:100D7000B000002058020020104700002DE9F84F75
:100D8000EFF3108772B62A4E73681B684FF0CA0BD8
:100D90004FF05308C3F824B0C3F824809A6822F4B3
:100DA00080629A60234A14781825E4B205FB042572
:100DB000297C02292FD1D5F804A0D5F8149092F8F7
:100DC00098301BB3697CC9B2012919D12046FFF7BD
:100DD00055FD87F31088A9682046FFF72FFF736839
:100DE0001B685246C3F824B02146C3F82480484605
:100DF000FFF7C2FF73681B68FF225A62BDE8F88FD5
:100E000087F310882046FFF7C3FEE8E7FFF788FD69
:100E100087F31088EEE7DA685207FCD5DA68D2B2B9
:100E200062F49062DA60044B4FF40022DA60EFE77C
:100E300058020020B00000200008005808B518B182
:100E400002280FD0002008BD0948036009480A4B5A
:100E5000036002F07BFE0228F5D00328F3D00128BE
:100E6000F0D1F0E7054803600548064BF0E700BF06
:100E7000BC130020AC14002000380140B013002047
:100E8000C0130020008000400368074A934207D047
:100E900002F53842934205D1044B1B6813B1184741
:100EA000034BFAE7704700BF00800040BC130020EE
:100EB000B01300204FF0B04382B09A6C02439A64A2
:100EC0009B6C18400190019B02B070474FF0B043FB
:100ED00082B0DA6C0243DA64DB6C18400190019B4B
:100EE00002B07047F0B5AFB04822002108A805F065
:100EF000EAF81C22002101A805F0E5F800215022A3
:100F00001AA805F0E0F801F033FC4FF0B0420024DD
:100F1000D2F8903023F01803C2F89030D2F80034A1
:100F200023F4C06343F40073C2F80034D2F80034F1
:100F3000139403F4C06300930722009B4FF48033A3
:100F4000CDE9082301274FF48076402308A80C93AD
:100F50000225CDE90A7601F0B7FC6F23394601A8D6
:100F6000CDE90135CDE90344CDE90544079401F00D
:100F700083FF43F603031A934FF48043CDE92B35E7
:100F80001AA81023CDE920442A962D9302F015F9D2
:100F90002FB0F0BD7FB54FF0B04401F0A1F8D4F808
:100FA00094305E0113D5D4F89430DD000FD401F0F5
:100FB000DFFB01F0DDFBD4F8903043F48033C4F85C
:100FC0009030D4F8903023F48033C4F890304FF050
:100FD000B0443F22236D43F480132365236D03F453
:100FE00080130193019B4D4B9A609A615A6842F4B9
:100FF0007C125A605A6942F47C125A615A6842F073
:101000003F025A605A6942F03F025A61002004F0E0
:101010000DFA58B1424B8279C4F89C30D4F89C3018
:1010200023F47C5343EA0223C4F89C30FFF75AFFB1
:101030003C4B3D4DD3F880200024C3F88040D3F8CA
:10104000902002F05002C3F890200420FFF73EFFEA
:101050000120FFF73BFF0220FFF738FF0420FFF7D6
:1010600029FF0120FFF726FF0220FFF723FF22467A
:101070000F210E2001F08AF80E2001F0BBF8224665
:101080000F213A2001F082F83A2001F0B3F8274806
:101090000F2247F6FF73C0E90054C0E90223046140
:1010A000C0E90644446102F07DFACA236B6253230F
:1010B0006B62AB6823F00703AB60FF2310226B6207
:1010C000214602A804F0FFFF194D1A49AC604FF405
:1010D0008033C5E9001332204FF40073C5E90303E0
:1010E0002846AC6102F060FC4FF4805302A9284608
:1010F000029302F07DFC284602F056FC284602F0DE
:1011000003FCFFF73DFB012000F0DEFE0A4C012549
:101110004FF0FF3004F01CFF2570F9E7000C005879
:10112000FECAFECA000800580028004038150020FA
:10113000BC150020002C01406202002038B5114A85
:10114000114C4FF4E1330025C4E900230C23C4E91A
:10115000053520464FF40043C4E90735C4E902557C
:101160002561C4E9095503F08BFB2946204603F0AD
:101170000BFC2946204603F02BFC2046BDE83840F6
:1011800003F0E7BB00380140AC14002070B5044602
:1011900000F0C8FF631C064602D000F0CFFF0444F5
:1011A000064D04E02B6923F004032B6130BF00F0EF
:1011B000B9FF801BA042F5D370BD00BF00ED00E079
:1011C00070474FF0B04382B0DA6C0243DA64DB6CF4
:1011D00018400190019B02B070474FF0B04382B0BD
:1011E0001A6D42F400221A651B6D03F4002301936B
:1011F000019B02B070470000F0B514228BB0064688
:1012000000210DEB020004F05EFF3368534A934265
:1012100058D14FF0B0430120DA6D42F00102DA6597
:10122000DB6D03F001030093009B0227FFF7C9FF6A
:101230000C2300250824CDE9053705A903234FF029
:101240009040CDE90753099401F0CAF940234FF0CB
:10125000904005A9CDE905370994CDE90755404CE3
:1012600001F0BEF93F4825621123C4E900031023B1
:10127000C4E9023520468023C4E90435C4E9065593
:1012800001F052F808B1FFF79BFF4FF08853CDE90A
:10129000013501A9012332488DF80C508DF80D500D
:1012A000049301F075F908B1FFF78AFF00222520A9
:1012B00074671146A66200F069FF252000F09AFFCE
:1012C0000BB0F0BD284A9342FAD14FF0B043012051
:1012D0001A6E42F480421A661B6E03F48043019337
:1012E000019BFFF76EFF0220FFF76BFF00254FF415
:1012F00000630724022705A94FF09040CDE9053788
:101300000994CDE9075501F06BF9C023CDE9053704
:101310000122032305A915480994CDE90723144C9C
:1013200001F05EF9134925620F23C4E9001310236D
:10133000C4E9023520468023C4E90435C4E90655D2
:1013400000F0F2FF08B1FFF73BFF00222420746792
:101350001146A66200F01AFF2420AFE7008000408B
:101360005C150020440002400038014000040048A1
:101370004C140020440402400268154B9A4213B5F5
:10138000044622D101F0F4F901F0F2F94FF0B04334
:101390002046D3F8902022F4407242F48072C3F8C1
:1013A0009020D3F8902042F40042C3F890209A6D28
:1013B00042F480629A659B6D03F480630193019B04
:1013C00002B0BDE8104002F083BA02B010BD00BF09
:1013D000002800407047FEE7FEE7FEE7FEE77047A3
:1013E0007047704700F092BE014801F086B800BF18
:1013F0005C150020014802F041BC00BFAC14002085
:10140000014802F03BBC00BFC0130020014801F0BE
:1014100074B800BF4C140020102001F09DB90120C9
:1014200001F09AB9FFF7AABC00F092BC00F0F0BC42
:10143000012000F057BD0021012004F04DBD10B582
:1014400004464068083004F0BBFB10B10123237050
:1014500010BD2070FCE710B1012803D070470F20A9
:1014600004F04EBD0F2004F059BD000007B5194827
:1014700090F89030012B29D9174A1378012B25D1E8
:101480001649C08C002313700A78013202F0010261
:101490000A70134901EB8202D2ED006AB7EE047ABA
:1014A000C6EE877A4FF4FA710091FDEEE77A17EEF7
:1014B000902A92B2114603F03DFE28B9094803B0C4
:1014C0005DF804EB04F008BE0748F8E703B05DF8E8
:1014D00004FB00BF50010020001600200116002070
:1014E000040000204C7200087A72000810B50C4C01
:1014F000012000F0F7FC94F89030052B0FD003F09A
:101500008BFA002384F8903038B9064804F0E4FDE3
:101510000548BDE8104004F0DFBD0448F9E710BD00
:1015200050010020B8720008A2720008BE720008C4
:1015300070B51E4C88B094F89100B4F89450B4F88B
:101540009660FFF725FB94F89010194804F0C4FD4D
:1015500004F12902049294F8282003920123154AE9
:1015600084F89030029200230822CDE90032CDE9C0
:10157000053332462946184603F06CFA0E490E2010
:1015800003F064FB014650B90C4804F019FE0C4905
:1015900094F8910008B0BDE87040FFF74FBB0948D0
:1015A00008B0BDE8704004F097BD00BF50010020B6
:1015B000E1720008AB7000080C000020FB7200080C
:1015C00046E001002073000870B5784B96B00AAA77
:1015D00003F12806154618685968144603C40833F1
:1015E000B3422246F7D118681B792371704B2060F3
:1015F00008A908936F48704B099303F033FE01214B
:10160000022004F027FC6D4A0021082004F054FC5D
:1016100028466B4D002403F0C7FFADF8184003F0D7
:1016200013FD2B685A1C00F0B880664A664C12689D
:101630002370190A1B0CA370E270130A120C61705C
:101640002371627122460621002003F087FC5F4B64
:1016500062791A7422795A74E2789A74A278DA74E8
:1016600062781A7522785A754EF66E5309932B6874
:10167000089308AA06212E2003F070FC544A554D09
:101680001021182003F06AFC534A1021082003F0AF
:1016900065FC1821012003F08DFC03F069FB0DF1BE
:1016A0001E03019307AB009307220DF11A030021DB
:1016B000012003F089FA494BBDF81C100093002269
:1016C0000723BDF81A0003F019FC06ABBDF81E1085
:1016D000009300220223BDF81A0003F00FFC02223F
:1016E0001146002003F0FEFC0320287003F00EFAE0
:1016F0004FF400620123AA8210226B70AA750023A6
:10170000374AEB70AA61AB70EA1813710133102BE2
:10171000FAD1334A0024CDE90324CDE90134012272
:101720000823009311462346204603F011FAAB78B4
:101730000BB103F0B5FA04F02FFA4FF6FF73294A04
:10174000EB840021012085F8904004F0B5FB0021D6
:10175000254A042004F0B0FB062003F051FC234B83
:101760001C70234B01221A7000F080FA0022214BDA
:1017700021491046FFF7E2F900222049204B10468C
:10178000FFF7DCF98023A5F894302C85A023A5F879
:101790009630FFF7CDFE16B070BD204603F046FE32
:1017A000184C002818BF04464CE700BFB970000869
:1017B000280003203F14000857140008B152000805
:1017C0008075FF1F8475FF1F630200200400002046
:1017D000E670000850010020F67000084D73000804
:1017E00007B20100ED1400086D1400080116002076
:1017F0000016002037140008E1010020E20100205B
:1018000031140008B370000873B543783E2B0446CA
:101810001AD0FF2B6BD0052B62D16B4B8188DA8CF1
:1018200091421C4606D100236848E38484F8903036
:1018300004F0C6FCFFF77CFE654801230370E38CCF
:10184000438000F00DFA4BE0C378032B24D00C2B1F
:1018500026D0012B44D15C4D95F89100FFF798F903
:10186000B4F805105B4804F037FC95F89030042B71
:101870000CBF0623052385F89030B4F80530544C8E
:10188000EB84002620466380267000F0E9F9EB8C9B
:10189000267063802046D4E74F4804F091FC1FE097
:1018A0004E4804F08DFC2379EBB94D4804F088FCD8
:1018B000454B0DF107020DF10601D88C03F0E2FB58
:1018C00098B9484804F07CFC9DF806109DF8072064
:1018D000022902D1022A08BF1146434804F0FCFB4A
:1018E000012002B070BD4148E0E74148D5E7B0F8BB
:1018F000033040F20542934234D012D840F2014204
:1019000093424DD006D8042B54D0B3F5806FE7D165
:101910003848C2E740F20342934221D01BD93648EF
:10192000BBE7B3F5816F26D009D840F20642934257
:1019300021D040F207429342D2D13048ADE740F285
:101940000A42934219D01AD3B3F5006FC8D12C4B79
:1019500001221A70C4E72B4804F032FC2A489CE7A5
:101960002A489AE72A4804F02BFC174BD88C03F03E
:10197000B5F9284891E728488FE728488DE7D0F83F
:101980000710274804F0A8FBD4F80710254804F0F6
:10199000A3FB0D4B0121D88C03F0C4F922487CE74E
:1019A000C179224804F098FBE3790BB9204874E729
:1019B000204872E7012000F087FA034B0A2193F8D0
:1019C0009200FFF73BF98BE75001002055730008A8
:1019D000FC1500204F7400087C730008A7730008F2
:1019E000C0730008097400081B740008E473000841
:1019F000377400088074000815750008A076000888
:101A000000160020A9740008CE740008EB740008CA
:101A10004275000860750008797500089A7500081D
:101A2000C4750008D9750008EA7500082676000814
:101A30007C7600088E76000800F02AB90021042088
:101A400004F04ABA70470021082004F045BA01208A
:101A500004F070BA012004F0E7BA000038B50020A5
:101A600000F040FA064B00220121002400255970A5
:101A70009A701A745A74D9701A71C3E9024538BD44
:101A8000E80100202DE90048194B1A798AB04ABBB9
:101A900001221A711B783BB3164804F01DFB16484F
:101AA00004F01AFB012205A9144801F0CBFE012223
:101AB00001A9124801F0EDFE059B019819BA90FAB0
:101AC00080FC4FF0000B4BEA01024CEAE1730AA9DB
:101AD00061E908234FF64260082203F051FD0AB085
:101AE000BDE800880022D4E7054804F0F5FAF6E7DF
:101AF000E8010020C77600080577000838150020A7
:101B0000097700082DE9F0470378012B86B00546D8
:101B10000FD004D3032B11D006B0BDE8F087474B9C
:101B2000474801221A7004F04BFB464804F0D4FAEF
:101B3000F2E7424B444800221A70F4E743681878F1
:101B4000D0B95C78012C09D100F0BEF93F4804F00F
:101B500037FB3C4804F0C0FA384B9C706B685C78EB
:101B600054B9204600F0BEF9394804F029FB354845
:101B700004F0B2FA314B9C706B681A78012ACBD111
:101B800053F8020F2D4C596804F1080203C26B6828
:101B90009A7A2274DE7A6674122200210DF1060010
:101BA00004F091FA00230093A27A637AE17A277B0A
:101BB00094F80D8094F80E9094F80FA08DF804100E
:101BC0008DF805208DF8063016B14FF4803304935C
:101BD000012201A91F4801F04CFD08B1FFF7F0FAFE
:101BE000012269461B488DF800A08DF801908DF800
:101BF00002808DF8037001F0B6FD08B1FFF7E0FA3E
:101C00006B685E78012E09D1002000F05DF9124862
:101C100004F0D6FA0B4804F05FFAA6706B685D78A2
:101C2000002D7FF479AF284600F05CF90B4804F0F2
:101C3000C7FA044804F050FAA5706DE7E8010020E7
:101C4000547700080577000885770008B777000803
:101C5000DC77000838150020027800082878000892
:101C60000378012B01D1FFF7F9BE704708B5064A8A
:101C70000021022004F020F9044B00221A70BDE874
:101C80000840FFF7EBBE00BF851A0008E8010020FE
:101C90000021022004F020B9094BD3F8D42042F4EB
:101CA0000072C3F8D4201A6A42F400721A6240BF6C
:101CB00020BF044AD36843F40043D360704700BF99
:101CC00000080058000400584FF0B04307B51A6DE3
:101CD00042F480121A651B6D03F480130193019B7B
:101CE000084B1A6842F001021A601A6842F4803206
:101CF0001A602C2000F07EFA2D2003B05DF804EB72
:101D000000F078BA000C0058024A536823F001032F
:101D100053607047000C0058024B4FF480329A60B9
:101D2000704700BF000C0058024A536823F00203BA
:101D300053607047000C0058044B4FF400329A6017
:101D40005A6822F400325A60704700BF000C0058F5
:101D50001E4BDA6812F0020F10B51A4609D1596805
:101D6000890306D45A6842F400325A6003F0F8FF3F
:101D700010BDD3689B0707D453689C0304D45368F1
:101D800043F400335360F1E7104CE36813F0080F9D
:101D900023460DD1626810030AD4636843F400231C
:101DA00063600B4B1B6898474FF40023A360DFE789
:101DB000DA689106DCD45A689202D9D45A6842F49F
:101DC00000125A6003F0A0FFD2E700BF000C0058D9
:101DD0006C02002010B5084CE3681B0706D5074BC2
:101DE0001860636823F40023636010BD80474FF4DC
:101DF0000023A360F9E700BF000C00586C0200202C
:101E0000024A536823F0080353607047000C0058DF
:101E100038B5124CE36913F0020F254607D063680A
:101E20009B0704D403F0A6FF0223A36009E0EB693B
:101E3000D80707D56B68D90704D403F04FFF0123F7
:101E4000AB6038BD054CE3691A07FAD563681B0718
:101E5000F7D403F0E5FF0823E7E700BF000C0058C4
:101E60004FF0B04382B0DA6C0243DA64DB6C1840A6
:101E70000190019B02B07047F0B587B00446142270
:101E8000002101A804F01FF90220FFF7E9FF0C4B25
:101E90000C4D33F8146055F82400019600270123F7
:101EA000CDE9023701A90223049300F099FB3A46D9
:101EB000314655F8240000F049FC07B0F0BD00BFE2
:101EC000067100081C000020044B33F81010044B6E
:101ED000012253F8200000F039BC00BF0671000851
:101EE0001C000020044B33F81010044B002253F860
:101EF000200000F02BBC00BF067100081C00002071
:101F000070B586B004460E461422002101A804F0E4
:101F1000DAF8CCB90420FFF7A3FFD6B91B4B03EBCB
:101F200044030125DB88CDE901360223CDE90353C3
:101F3000174B03EB840401A9E06800F051FB28462D
:101F4000FFF724F906B070BD631E012BE5D8082009
:101F5000E1E7012EF6D10D4D039605EB440301A9EF
:101F6000DB8801930B4B0293094B03EB84032C4456
:101F7000D86800F035FB94F90C40002220460F2170
:101F800000F004F9204600F035F9DBE7067100089F
:101F90001C00002000002110174B00219960D3F88D
:101FA000882042F47002C3F888204FF0B0436FF4E9
:101FB000827C1A6842F001021A604FF4E0229A60B3
:101FC0001868A2F1A262624402401A60D3F8942019
:101FD00022F00502C3F89420D3F8982022F00102E1
:101FE000C3F89820054ADA601A611A6822F4802240
:101FF0001A609961704700BF00ED00E000100422F4
:1020000030B54FF0B04421492368A068204AC3F39B
:10201000031300F00C00082851F8235012D00C28AC
:1020200012D0042830D11B4B13604FF0B0439B6893
:10203000C3F3031301EB83011368096CB3FBF1F3E2
:10204000136030BD144BEFE7E068E36800F0030075
:10205000C3F30213022803F101030ED10D48B0FBB4
:10206000F3F34FF0B040C468C068C4F30624400FD7
:1020700063430130B3FBF0F3D6E7032801D10648F0
:10208000EDE7B5FBF3F3ECE71560CEE71871000858
:10209000340000200024F4000048E80170B50F4D22
:1020A0002B7806460BB9012070BD01F027F82A787D
:1020B0004FF47A73B3FBF2F3B0FBF3F000F0BCF82B
:1020C00004460028EFD10F2EEDD8024631464FF0DE
:1020D000FF3000F05BF86E602046E5E73800002036
:1020E000094A136843F4807310B50320136000F0AD
:1020F0003BF80020FFF7D2FF044618B9FFF76DF850
:10210000204610BD0124FBE700400058034A044B61
:1021100011681B780B441360704700BF0416002041
:1021200038000020014B1868704700BF04160020DB
:10213000014B5868704700BF38000020014B1878E9
:10214000704700BF38000020024A536843F0010383
:1021500053607047002004E0024A536843F00203D2
:1021600053607047002004E0074AD36823F4E0631B
:102170001B041B0C43F0BF63000243F4003300F464
:10218000E0600343D360704700ED00E0174B70B58B
:10219000DC68C4F30224C4F10705042D04F1040330
:1021A00028BF04254FF0FF36062B06FA05F38CBF37
:1021B000033C002421EA0303A34006FA04F422EAC4
:1021C0000404002843EA0403A8BF00F160404FEA7A
:1021D0000313BCBF00F00F00054ADBB2AABF00F535
:1021E0006140135480F8003370BD00BF00ED00E083
:1021F00014ED00E0002808DB4209012300F01F0075
:1022000003FA00F0014B43F82200704700E100E0C0
:1022100000280DDB4309012200F01F0002FA00F044
:102220002033044A42F82300BFF34F8FBFF36F8F70
:10223000704700BF00E100E00138B0F1807F0AD2B2
:10224000064B074A5860F02182F82310002007222D
:1022500098601A6070470120704700BF10E000E0EE
:1022600000ED00E0002809DB4309012200F01F0017
:1022700002FA00F04033024A42F82300704700BFE0
:1022800000E100E0002809DB4309012200F01F0003
:1022900002FA00F06033024A42F82300704700BFA0
:1022A00000E100E070B5D0E913456560446D14B1FC
:1022B000D0E916456560D0E9106404F01C050124DE
:1022C000AC407460046863608368102B0BBFA2602D
:1022D000A160E160E26070BD10490368426C8B420E
:1022E00022F0030295BF02F180420D4902F502324D
:1022F000891898BF8264DBB20A4AC264A3F108035A
:102300004FF01402B3FBF2F34FF0010203F01C0391
:1023100002FA03F388BF8164036570470704024033
:102320001C0802408008024010B5044600285DD019
:1023300001682F4B99424FF014004AD82D4A0A44A5
:10234000B2FBF0F292006264A3F20743236402231B
:1023500084F82530D4E90230034320690A68034336
:1023600060690343A0690343E0690343206A22F4E0
:10237000FF4222F07002034313430B602046FFF735
:10238000ABFFA368A16CB3F5804F04BF002363606B
:102390006268D3B20B60D4E91310013A032A486093
:1023A0001FD8154A1548A0651A44013B9200012127
:1023B00003F0030301FA03F300216265E365116092
:1023C000436000200123E06384F8240084F8253072
:1023D00010BD0B4B0B44B3FBF0F39B006364094B44
:1023E000B4E70023C4E91533E365EAE70120EFE72A
:1023F00007040240F8FFFDBF3F8200104009024081
:10240000F8FBFDBF0004024070B590F82450012D88
:10241000044639D0012580F8245090F82550012D2C
:102420004FF000064FF002052CD180F82550C6630E
:102430000668356825F001053560FFF733FF026B4C
:102440000368BAB11A6842F00E021A60A26C1168F1
:10245000C90342BF116841F480711160626D1AB105
:10246000116841F4807111601A6842F001021A602B
:10247000002070BD1A6822F004021A601A6842F047
:102480000A02E2E780F824600220F2E790F82530A3
:10249000022B10B503D00423C363012010BD0368D1
:1024A0001A6822F00E021A601A6822F001021A60FD
:1024B000826C136823F480731360D0E9101303F067
:1024C0001C02012393404B60D0E913325A60436DE4
:1024D00033B11A6822F480721A60D0E916325A6059
:1024E000012380F82530836B002480F8244013B149
:1024F00098472046D2E71846D0E7016C426C036843
:1025000070B402F01C020E681D680424944034422A
:102510000ED015F0040F0BD01A6892065EBF1A6831
:1025200022F004021A60036B4C6073B370BC18474E
:1025300002249440344212D015F0020F0FD01A68D2
:10254000950606D41A6822F00A021A60012380F860
:10255000253000234C6080F82430C36AE5E7082466
:102560009440344211D02C070FD51C6824F00E047F
:102570001C60012303FA02F24A60C36380F825302D
:10258000002380F82430436BCFE770BC7047000015
:1025900090F82530012B70B51BD190F82430012B19
:1025A00019D0CB68846C5A1ED1E90036334343EA14
:1025B000C2430A7A256843EA02434A7A43EA42233D
:1025C000064A2A4013432360002380F8243018462B
:1025D00070BD0120FCE70220FAE700BFFFFD00E02C
:1025E0002DE9F04F574AD1F800E000234FF00F09D2
:1025F0003EFA03F401D1BDE8F08F012404FA03F898
:1026000018EA0E0500F094804C6824F0100A4FEA96
:10261000430C03260AF1FF3706FA0CF6012F6FEA86
:10262000060611D8876807EA060BCF6807FA0CF789
:1026300047EA0B078760476827EA0808C4F30017D2
:102640009F4047EA08074760C76807EA06088F689F
:1026500007FA0CF747EA0807BAF1020FC76014D16E
:102660004FEAD30800EB880803F0070AD8F8207077
:102670004FEA8A0A09FA0AFB27EA0B0B0F6907FAE5
:102680000AF747EA0B07C8F8207007683E4004F0D5
:10269000030707FA0CFC4CEA06060660E60047D57D
:1026A00023F0030707F1804707F5803703F0030C99
:1026B000BE684FEA8C0C09FA0CF8B0F1904F26EA8C
:1026C000080837D0204EB04236D006F58066B042BA
:1026D00034D006F58066B04232D006F58066B0424E
:1026E00014BF0726042606FA0CF646EA0806BE6062
:1026F000D2F88060EF4314F4803F0CBF3E402E437D
:10270000C2F88060D2F8846014F4003F0CBF3E40F1
:102710002E43C2F88460166814F4801F0CBF3E403C
:102720002E4316605668A40254BF3E402E435660A6
:1027300001335DE70026D6E70126D4E70226D2E77B
:102740000326D0E700080058000400480AB1816160
:10275000704781627047000008B5044BD968014298
:1027600002D0D860FEF76FF808BD00BF000800581F
:10277000024A136843F480731360704700040058E2
:10278000024B186800F4C060704700BF0004005896
:102790004FF0B0431868C0F3404070474FF0B0436B
:1027A0001868C0F3802070474FF0B043D3F894000E
:1027B000C0F3400070474FF0B0431868C0F34000CA
:1027C00070474FF0B042136823F0F00318431060D5
:1027D00070474FF0B043186800F0F000B02828BFF1
:1027E000B02070474FF0B042536823F47F4343EA70
:1027F0000020506070470000B0282E4B2E4A98BF32
:102800000009F0B58CBFDD6A53F820502B4C4FF017
:10281000B04389B0D3F8083103F00F036E4652F885
:102820002330B5FBF3F5264BB5FBF3F5FFF7A8FF17
:10283000074694E80F00103486E80F0094E80F0074
:10284000B7F5007F08AC04E90F0017D0062D24D996
:102850000C2D24D9102D24D900241A4D2B6823F0D7
:10286000070323432B60FFF75DFC06462B6803F04C
:1028700007039C4217D1002009B0F0BD002356F891
:102880002320954205D808AA02EB830353F8104C85
:10289000E3E70133042BF2D1DEE70023F3E7012362
:1028A000F1E70223EFE7FFF73DFC801B0228DDD9AB
:1028B0000320E1E718710008587100081872000839
:1028C00040420F0000400058F8B5044608B9012006
:1028D00081E003689F062AD54FF0B0429368D26822
:1028E00013F00C0305D00C2B5AD102F00303012B7B
:1028F00056D1FFF760FF10B1E369002BE7D0626AA1
:10290000FFF767FF8242606A3FD9FFF775FF002833
:10291000DDD1606AFFF755FF206AFFF763FFFFF71D
:102920006FFBBA4B1868FFF7B9FB0028CFD12368BB
:10293000DE0762D423689D0700F1AD80236813F0A1
:10294000180F40F0EE802368580700F18881236853
:10295000580640F1ED81A36A4FF0B045002B00F01E
:10296000D481D5F8983043F00103C5F89830FFF7CB
:10297000D9FB0646D5F89830990700F1D981FFF7C1
:10298000D1FB801B0228F5D924E0FFF71AFF206A4B
:10299000FFF728FF606AFFF72FFF0028BFD096E7F8
:1029A000E2694FF0B043BAB11A6842F001021A600E
:1029B000FFF7B8FB0546FFF7FEFE30B1606AFFF790
:1029C00000FF206AFFF70EFFB1E7FFF7ABFB401BEC
:1029D0000228F0D90320F8BD1A6822F001021A601B
:1029E000FFF7A0FB0546FFF7E6FE00289FD0FFF7A4
:1029F00099FB401B0228F6D9ECE74FF0B0429368F0
:102A0000D26803F00C03082B05D00C2B0BD102F07D
:102A10000303032B07D1FFF7BBFE00288AD06368AE
:102A2000002B87D153E76268B2F5803F4FF0B04387
:102A300011D11A6842F480321A60FFF773FB054621
:102A4000FFF7A6FE00287FF475AFFFF76BFB401B76
:102A50006428F5D9BEE7B2F5A02F04D11A6842F474
:102A600080221A60E5E7196821F48031196019683D
:102A700021F480211960002ADFD1FFF753FB0546BE
:102A8000FFF786FE00283FF455AFFFF74BFB401BD6
:102A90006428F5D99EE74FF0B0429368D26803F0FE
:102AA0000C03042B05D00C2B14D102F00303022BD2
:102AB00010D1FFF773FE18B1E368002B3FF407AFA6
:102AC0004FF0B0422169536823F0FE4343EA0163AB
:102AD000536033E7E2684FF0B04382B11A6842F4C2
:102AE00080721A60FFF71EFB0546FFF757FE0028AD
:102AF000E6D1FFF717FB401B0228F6D96AE71A68F0
:102B000022F480721A60FFF70DFB0546FFF746FEC0
:102B100000283FF413AFFFF705FB401B0228F5D94F
:102B200058E762694FF0B045002A71D0D90647D501
:102B3000FFF73AFE58B34FF0B045D5F8943043F064
:102B40000403C5F89430FFF7EDFA0646D5F8943043
:102B50001A072FD5D5F89430A26923F4706343EA9D
:102B60000223C5F89430D5F8943023F00103C5F85A
:102B70009430FFF7D7FA0546FFF716FE00283FF41A
:102B8000E2AEFFF7CFFA401B0228F5D922E7D5F8CD
:102B9000943043F00103C5F89430FFF7C3FA0546BB
:102BA000FFF702FE0028C6D1FFF7BCFA401B02283F
:102BB000F6D90FE7FFF7B6FA801B0328C6D909E755
:102BC000D5F8943043F00103C5F89430FFF7AAFA22
:102BD0000646FFF7E9FD98B14FF0B0431D46D3F824
:102BE000942022F00402C3F89420D5F894301B07F7
:102BF0007FF5A9AEFFF796FA801B0328F5D9E9E621
:102C0000FFF790FA801B0228E3D9E3E63C0000209E
:102C1000D5F8943023F00403C5F89430FFF782FA16
:102C20000646D5F894301F0713D4D5F8943023F016
:102C30000103C5F89430FFF775FA0546FFF7B4FDB8
:102C400000283FF480AEFFF76DFA401B0228F5D94B
:102C5000C0E6FFF767FA801B0328E2D9BAE6844D85
:102C60002B68D8051CD5A368012B4FF0B04525D1A2
:102C7000D5F8903043F00103C5F89030FFF752FAD1
:102C80004FF0B047064641F28835D7F890309A07A2
:102C90003FF55DAEFFF746FA801BA842F5D999E6ED
:102CA000FFF766FDFFF73EFA06462B68D905DAD432
:102CB000FFF738FA801B0228F7D98BE6052B06D1DF
:102CC000D5F8903043F00403C5F89030D0E7D5F83C
:102CD000902022F00102C5F89020D5F8902022F033
:102CE0000402C5F89020002BC8D1FFF71BFA41F26F
:102CF00088360746D5F890309B077FF528AEFFF75A
:102D000011FAC01BB042F5D964E6D5F8983023F02B
:102D10000103C5F89830FFF705FA0646D5F8983054
:102D20009A0705D5FFF7FEF9801B0228F6D951E670
:102D3000E16A09B900204EE64FF0B0450229AA68C1
:102D4000EB6802F00C0274D1206B03F003018142A6
:102D500018D1606B03F07001814213D1A06BC3F3F3
:102D6000062181420ED1E06B03F47811814209D132
:102D7000206C03F06061814204D1616C03F0604318
:102D80008B423FD00C2A3FF4A2AD4FF0B0452B68E8
:102D90005B013FF59CAD2B6823F080732B60FFF740
:102DA000C1F906462B689F0126D4D4E90C32E968A4
:102DB0001343304A0A401343E26B1343226C13431C
:102DC000626C1343A26B43EA0223EB602B6843F06F
:102DD00080732B60EB6843F08053EB60FFF7A2F940
:102DE0004FF0B044054623689801A3D4FFF79AF941
:102DF000401B0228F7D9EDE5FFF794F9801B022864
:102E0000D0D9E7E52B68990194D42B6843F08073FF
:102E10002B60EB6843F08053EB60FFF783F90446C7
:102E20002B689A0186D4FFF77DF9001B0228F7D999
:102E3000D0E50C2A3FF44BAD2B6823F080732B6058
:102E4000EB6823F00303EB60EB6823F0885323F473
:102E50008033EB60FFF766F904462B689B017FF532
:102E600069AFFFF75FF9001B0228F6D9B2E500BF92
:102E7000000400588C80C1112DE9F0410D46044634
:102E800010B90120BDE8F081744E336803F00703E8
:102E90008B4216D32368980727D54FF0B046A26817
:102EA000B36823F0F0031343B360FFF73BF9074621
:102EB000B368D90319D4FFF735F9C01B0228F7D935
:102EC00011E0336823F007030B433360FFF72AF95F
:102ED0000746336803F00703AB42DBD0FFF722F964
:102EE000C01B0228F5D90320CCE723689A0616D523
:102EF0004FF0B0466269D6F8083123F0F00313436F
:102F0000C6F80831FFF70EF90746D6F808319B03DB
:102F100005D4FFF707F9C01B0228F6D9E3E72368B9
:102F2000580617D54FF0B046A269D6F8083123F0FD
:102F30000F0343EA1213C6F80831FFF7F3F8074608
:102F4000D6F80831D90305D4FFF7ECF8C01B0228E6
:102F5000F6D9C8E723685A0713D54FF0B046E268A0
:102F6000B36823F4E0631343B360FFF7DBF807466D
:102F7000B3689B0305D4FFF7D5F8C01B0228F7D927
:102F8000B1E72368180714D54FF0B0462269B3683B
:102F900023F4605343EAC203B360FFF7C3F8074664
:102FA000B368590305D4FFF7BDF8C01B0228F7D951
:102FB00099E72368DA070DD4284C236803F0070348
:102FC000AB4237D8FFF71CF8FFF7B2F8BDE8F04185
:102FD000FFF764B86368022B03D1FFF7D9FB40B950
:102FE0004FE7032B1FD14FF0B0431B689B017FF5C8
:102FF00048AF4FF0B0466268B36823F00303134351
:10300000B360FFF78FF841F288380746B36862680B
:1030100003F00C03B3EB820FCED0FFF783F8C01B95
:103020004045F3D95FE713B9FFF7C5FBD7E7FFF7D3
:10303000B5FBD4E7236823F007032B432360FFF796
:1030400071F80646236803F00703AB42BAD0FFF7D6
:1030500069F8801B0228F5D945E700BF00400058F9
:103060004FF0B04208B5936813F00C0307D1FFF797
:10307000B0FB1F4BC0F3031053F8200008BD042B16
:1030800033D0082B07D113681A4813F4801F1A4B4A
:1030900008BF1846F2E7D36803F00303022B22D0DF
:1030A000032B18D11368134813F4801F124B18BF59
:1030B00003464FF0B042D068D168D268C0F3062012
:1030C0005843C1F302130133B0FBF3F0530F013344
:1030D000B0FBF3F0D2E7FFF77CFB054BC0F3031026
:1030E00053F82030E5E7034BE3E70248C6E700BFAB
:1030F000187100080024F4000048E80108B5FFF743
:10310000AFFF4FF0B043044A9B68C3F3031352F878
:103110002330B0FBF3F008BD5871000808B5FFF785
:10312000EDFF4FF0B043054A9B68C3F3022352F80A
:10313000233003F01F03D84008BD00BFF87100081A
:1031400008B5FFF7DBFF4FF0B043054A9B68C3F3B8
:10315000C22352F8233003F01F03D84008BD00BF3C
:10316000F87100084FF0B043D3F89000C0F340006E
:1031700070474FF0B0410209D1F8883002F47F2245
:10318000000123EA020300F47F201843C1F88800FD
:1031900070474FF0B042136843F08063136070478C
:1031A0004FF0B042136823F08063136070474FF014
:1031B000B0431868C0F3C0607047F8B5056815F0F3
:1031C0004005044643D0036BB3F5800F15D002D8F9
:1031D000D3B101253BE0B3F5000F02D0B3F5400FAA
:1031E000F7D14FF0B042216BD2F8883023F440037E
:1031F0000B43C2F88830002529E04FF0B042D36875
:1032000043F48033D360ECE7FFF7CAFFFEF78AFF91
:103210000546FFF7CCFFA0B94FF0B04261681369D3
:1032200023F4FE4343EA012313611369A16823F4E5
:1032300078130B431361FFF7ACFFFEF773FF0546EE
:10324000CDE0FEF76FFF401B0228E2D9032523687B
:103250001A0515D54FF0B046236CD6F8907007F4D8
:103260004077BB420CD0FFF783FAD6F89030002F9E
:1032700040F0C080226C23F440731343C6F89030B2
:103280002368DF0709D54FF0B041A069D1F8882045
:1032900022F003020243C1F888209E0709D54FF0AF
:1032A000B041E069D1F8882022F440620243C1F8BD
:1032B0008820D8060CD5A66A4FF0B040310CD0F863
:1032C0008820090422EA010242EA0642C0F8882066
:1032D00099060CD5E66A4FF0B040310CD0F8882042
:1032E000090422EA010242EA0642C0F888205A078D
:1032F00002D5206AFFF73DFF23681B0702D5606AED
:10330000FFF737FF2368DF0511D54FF0B042616B3F
:10331000D2F8883023F040630B43B1F1006FC2F85C
:10332000883040F08F80D36843F08073D360236887
:103330009E051AD5A26BB2F1004F4FF0B04303D0F7
:1033400032F0804140F0B680D3F8881021F040413F
:103350001143B2F1C05F08BF4FF0B042C3F888100C
:1033600002BFD36843F08073D3602368580511D53A
:103370004FF0B042E16BD2F8883023F040530B435A
:10338000B1F1005FC2F8883040F0A280D36843F406
:103390008033D3602268D10409D54FF0B041606C0E
:1033A000D1F8943023F440430343C1F8943093049C
:1033B0000DD54FF0B042E16C536A23F030030B435C
:1033C0005362536AA16C23F003030B4353622846F4
:1033D000F8BDFEF7A7FE401B02283FF637AFFFF708
:1033E000E6FE0128F5D14FF0B042616913690B4345
:1033F0001361F6E6D6F8902042F48032C6F89020A9
:10340000D6F8902022F48032C6F89020226C23F463
:1034100040731343C6F89030D6F89030DB077FF541
:103420002FAFFEF77FFE41F288370646FFF79AFE80
:1034300001283FF425AFFEF775FE801BB842F5D991
:1034400003251DE7B1F1806F7FF471AFFFF7A8FE90
:10345000FEF768FE0646FFF7AAFEA0B94FF0B0429D
:103460006168136923F4FE4343EA0123136113697E
:10347000E16823F060630B431361FFF78AFEFEF7F8
:1034800051FE06460BE0FEF74DFE801B0228E2D9F6
:1034900003254CE7FEF746FE801B0228F8D8FFF70D
:1034A00086FE0128F6D14FF0B042616913690B43E3
:1034B00013613CE7D3F8881021F04041C3F888102D
:1034C000D3F8880022F0805120F04060014340E7AB
:1034D000B1F1805F7FF45EAFFFF762FEFEF722FE80
:1034E0000646FFF764FEA0B94FF0B0426168136969
:1034F00023F4FE4343EA012313611369216923F096
:1035000060430B431361FFF744FEFEF70BFE0646D4
:103510000BE0FEF707FE801B0228E2D9032539E7FE
:10352000FEF700FE801B0228F8D8FFF740FE0128B6
:10353000F6D14FF0B042616913690B43136129E77B
:10354000026838B5D36823F0A003D3600446FEF7C1
:10355000E9FD05462368DB689B0601D5002038BDE0
:10356000FEF7E0FD401BB0F57A7FF3D90320F6E7C4
:1035700038B50368DA685206044601D5002038BD24
:103580004FF0FF32DA60FEF7CDFD05462368DB68B9
:103590005B06F3D4FEF7C6FD401BB0F57A7FF5D984
:1035A0000320ECE738B50446D8B190F8213003F099
:1035B000FF021BB980F82020FDF7DEFE022384F80D
:1035C00021302368CA225A6253225A622046FFF7EA
:1035D000CFFF2368054630B1FF225A62042384F8E6
:1035E0002130012538E09A68206922F4E00222F0B7
:1035F00040029A60626899680243A06902430A43E4
:103600009A60E2681A611A69A168606942EA014237
:103610001A61DA6822F08002DA60DA6C22F00302C2
:10362000DA64E269D96C02430A43DA649B689B0658
:103630000CD42046FFF784FF40B12368FF225A6272
:10364000042384F8213084F82050CAE72368FF223D
:103650005A62012384F82130284638BD0023092806
:1036600003D840EA0310C0B270470A380133C0B231
:10367000F5E790F82030012B2DE9F04106460F4682
:103680004FF0020532D00123016880F8203080F825
:10369000215038787D78BC788B6852BB13F040039A
:1036A00008BFFB70FFF7DAFF80462846FFF7D6FF1A
:1036B00002462046FFF7D2FFFB7840EA034040EA8B
:1036C000084040EA0224CA234B6253234B6230462F
:1036D000FFF74EFF33680546C0B1FF225A6204234C
:1036E00086F82130002386F8203001252846BDE8E1
:1036F000F08113F040034FEA052508BFFB7045EA4F
:1037000000402043FC7840EA0444DCE704F07F34C6
:1037100024F0FE441C609A6822F480229A60D7E963
:103720000320996802430A439A60DA6822F0800213
:10373000DA609B689B060CD43046FFF701FF40B16E
:103740003368FF225A62042386F8213086F820501D
:10375000CBE73368FF225A62012386F82130002329
:1037600086F82030C2E7F8B590F82030012B0646E5
:103770004FF0020534D0012380F8203080F821502A
:103780000D78C8784C788F786D03002A4DD1E20609
:1037900003D524F010040A344C70FFF75FFF024693
:1037A0004878FFF75BFF04463846FFF757FF28438A
:1037B00040EA02403368CA225A6253225A6240EAFF
:1037C00004243046FFF7D4FE3368054650B1FF228B
:1037D0005A62042386F82130002386F82030012520
:1037E0002846F8BD24F07F4424F0C0045C60DA6809
:1037F00022F08002DA609B689B060CD43046FFF70B
:103800009FFE40B13368FF225A62042386F82130BC
:1038100086F82050E3E73368FF225A62012386F8D6
:103820002130002386F82030DAE745EA00403843AB
:10383000C0E7030903EB830300F00F0000EB430034
:10384000C0B270470368986A486018691B6803F043
:103850007F3323F0FE4370B5C0F30E001D0C88606B
:10386000C3F3062605F03F00DCB205F04005087002
:103870004E708C70CD7052B9FFF7DBFF0870304688
:10388000FFF7D7FF48702046FFF7D3FF887000206E
:1038900070BD38B503685B6823F07F4323F0C00335
:1038A000180CC3F30425DCB2C3F34233C8704D7067
:1038B0008C700B7052B9FFF7BCFFC8702846FFF739
:1038C000B8FF48702046FFF7B4FF8870002038BD6D
:1038D00090F82030012B4FF0020312D080F82130F5
:1038E0000368CA225A6253225A629A6842F020023E
:1038F0009A60FF225A62012380F82130002380F869
:1039000020301846704770470368DA6842F00102B9
:10391000DA609968064A0A40062A06D0B2F5803F66
:103920001EBF1A6842F001021A600020704700BFF3
:10393000070001001A4A0368904210B502D0B0F1A6
:10394000804F09D14C6823F07003904243EA04038E
:1039500009D0B0F1804F06D0124A904203D002F550
:103960008062904203D1CA6823F4407313434A69CA
:1039700023F08003134303608B68C3620B68836288
:10398000074B984207D003F5C053984203D003F584
:103990008063984201D10B6903630123436110BD29
:1039A000002C01400044014010B50446A0B190F83D
:1039B0003D3003F0FF021BB980F83C20FFF7A3FF66
:1039C000022384F83D302068211DFFF7B3FF012357
:1039D00084F83D30002010BD0120FCE710B584685C
:1039E0000A4324F47F4442EA03232343836010BD47
:1039F00090F83C30012B70B504464FF0020017D010
:103A000084F83D002068012384F83C308268454BEF
:103A1000134083600B68402B6BD017D8102B0CD051
:103A200007D853B10123002084F83D3084F83C00CE
:103A300070BD202B01D0302BF4D1826822F44012CB
:103A400022F0700243F0070313431CE0602B36D0D2
:103A50001BD8502BE6D14A68CE68016A056A25F06A
:103A600001050562836921F00A0123F0F00343EAAE
:103A700006130A4383610262836823F4401323F030
:103A8000700343F057038360CCE7702B0CD0B3F581
:103A9000005FC7D1CB68D1E90121FFF79FFF226802
:103AA000936843F4804308E0CB68D1E90121FFF734
:103AB00095FF2268936843F077039360B2E74D68FF
:103AC000CE68016A21F0100101628269036A22F462
:103AD000704223F0A00343EA051342EA06328261F2
:103AE0000362836823F4401323F0700343F06703F9
:103AF000C9E74A68CE68016A056A25F001050562D2
:103B0000836921F00A0123F0F00343EA06130A4314
:103B100083610262836823F4401323F0700343F04F
:103B20004703B0E78800CEFF0268136823F4907360
:103B30001360936823F0805323F0010393602023E4
:103B4000C0F884300023C36670470000F8B504460F
:103B50001346D4F88070202F3AD161B35AB394F849
:103B60007C20012A34D0606FA4F85630012500264D
:103B70002122C4F8886084F87C502165A4F8543070
:103B8000C4F88020C8B1DFF84CC02268C0F82CC04F
:103B9000DFF844C0C0F830C0DFF840C02832C0E9C8
:103BA0000DC6FEF731FC40B11023C4F8883084F80C
:103BB0007C60C4F88070012009E0236840221A620A
:103BC0009A68002042F0800284F87C009A60F8BD78
:103BD0000220FCE7E13B0008113C00081D3C000806
:103BE00008B50368826A1B6813F020030BD1A2F8A2
:103BF000563013689A6822F080029A601A6842F080
:103C000040021A6008BD1046FDF73EF9FAE770471A
:103C100008B5806AFFF7FBFF08BD7047816A0B6833
:103C2000D1F88020D1F8840010B59C6824060FD507
:103C3000212A0DD10022A1F856201A6822F0C002D4
:103C40001A609A6822F400029A602022C1F880204B
:103C50009B685B0607D5222805D10023A1F85E30BA
:103C60000846FFF761FFD1F8883043F01003C1F830
:103C700088300846FFF7D1FF10BD00000268D36905
:103C8000116870B540F60F052B42044690680BD1C1
:103C90009E0640F183808D0601D4C6007ED5E36E7A
:103CA000002B75D020466DE0584E064002D1584D8D
:103CB000294273D0DD0709D5CD0507D50125156249
:103CC000D4F8885045F00105C4F888509D0709D5FF
:103CD000C50707D502251562D4F8885045F00405BC
:103CE000C4F888505D0709D5C50707D504251562B6
:103CF000D4F8885045F00205C4F888501D070AD54D
:103D00008D0600D43EB108251562D4F8885045F0E0
:103D10000805C4F888501E050AD54D0108D54FF492
:103D200000651562D4F8882042F02002C4F888208B
:103D3000D4F8882062B39E0607D58D0601D4C00052
:103D400003D5E36E0BB1204698472268D4F888501B
:103D500092685106204602D415F0280519D0FFF7C5
:103D6000E3FE23689A6852060FD59A68A06F22F086
:103D700040029A6048B1274B8363FEF787FB38B156
:103D8000A06F836BBDE8704018472046FFF745FFE2
:103D900070BDFFF742FFC4F88850F9E7DE0209D58D
:103DA000450207D54FF4801320461362BDE87040EA
:103DB00000F0CCBD1E0605D50D0601D4000201D5CC
:103DC000236F6DE75E060ED54D060CD5136823F004
:103DD000400313602023C4F880300023236720466B
:103DE000FDF752F8D4E7180206D54A0004D520465C
:103DF000BDE8704000F0ACBDDB01C9D50029C7DAD1
:103E00002046BDE8704000F0A2BD00BF01000010D8
:103E100020010004193E000808B5806A0023A0F8BC
:103E20005E30A0F85630FFF7F8FE08BD0000000035
:103E30000368C16982682DE9F048044600691D687D
:103E4000024360690243606E0A430243AC48284063
:103E500002431A605A68E06822F4405202435A60F2
:103E6000A84AA06993421CBF226A10439A6822F0B4
:103E70006E4222F4306202439A60DA6A606A22F08B
:103E80000F020243DA62A04A93421AD14FF0B043C4
:103E90009E4AD3F8883003F00303B1F5004FD35C9A
:103EA00003F1FF3340F03483072B00F22E83DFE869
:103EB00013F02A0251022C0398022C032C032C032A
:103EC000B102904A934240F0EF834FF0B043D3F8F1
:103ED000883003F44063B3F5806F00F0AC800AD8FB
:103EE000C3B3012200234FF00111C4E91A13236761
:103EF0001046BDE8F088B3F5006F65D0B3F5406FAC
:103F0000EFD1002800F0E780012800F0E8800228C7
:103F100000F0E980032800F0EA80042800F0EB803C
:103F2000052800F00B81062800F00C81072800F01E
:103F30000D81082800F00E81092800F00F810A2861
:103F400000F010810B284FF0080114BF4FF400401F
:103F5000802058E0FFF7E2F8636AFBB1012B1FD025
:103F6000022B1FD0032B1FD0042B1FD0052B1FD0DB
:103F7000062B1FD0072B1FD0082B1FD0092B1FD0BB
:103F80000A2B1FD00B2B14BF01234FF48073002189
:103F9000B0FBF3F0002836D10246A3E70123F6E791
:103FA0000223F4E70423F2E70623F0E70823EEE711
:103FB0000A23ECE70C23EAE71023E8E72023E6E7EF
:103FC0004023E4E78023E2E700286BD001286CD08F
:103FD00002286DD003284FF002016CD004286CD069
:103FE00005286CD006286CD007286CD008286CD027
:103FF00009286CD00A286CD0454B4FF224420B287C
:1040000014BF18461046626802EB420383423FF633
:1040100068AFB0EB023F3FF664AF082900F2708151
:10402000DFE811F0A4006E01E0006E011C016E01DA
:104030006E016E013501FFF713F8636AE3B1012BDE
:104040001CD0022B1CD0032B1CD0042B1CD0052B06
:104050001CD0062B1CD0072B1CD0082B1CD0092BE6
:104060001CD00A2B1CD00B2B14BF01234FF48073E0
:10407000B0FBF3F004218DE70123F9E70223F7E712
:104080000423F5E70623F3E70823F1E70A23EFE724
:104090000C23EDE71023EBE72023E9E74023E7E7D4
:1040A0008023E5E702211A48ADE702211948AAE773
:1040B00001461948A7E71948A5E71948A3E7194891
:1040C000A1E719489FE719489DE719489BE7194858
:1040D00099E7194897E708214FF4004093E7082132
:1040E0004FF480408FE708214FF400508BE7082100
:1040F00041F2555087E708214FF4805083E700BF15
:10410000F369FFCF0080004000380140387200089A
:104110000024F40000127A0000093D00AAB0280033
:1041200080841E00006A18005558140040420F0099
:1041300020A1070090D0030048E80100082140F6C4
:10414000CC4060E7082140F6AA205CE708214FF444
:10415000006058E701464FF4806054E708214FF4AF
:10416000007050E708214FF480704CE7FEF7D6FF4F
:10417000636A002B00F08980012B72D0022B72D071
:10418000032B72D0042B72D0052B72D0062B72D069
:10419000072B72D0082B72D0092B72D00A2B72D049
:1041A0000B2B72D14FF4807200230021FCF738F8FA
:1041B00065680F0247EA10670602680816EB000BF5
:1041C00047F1000C2A46002358466146FCF728F8C0
:1041D0000022A54BA0F5407199423FF682AE2368BC
:1041E000D8607FE6636A002B36D0012B16D0022BF5
:1041F00016D0032B16D0042B1ED0052B1ED0062B59
:104200001ED0072B20D0082B20D0092B20D00A2B22
:1042100020D00B2B20D1954E002706E0944EFBE7D3
:10422000944EF9E78CA7D7E90067550870194FF04D
:10423000000347F10001C9E78F4EEDE78F4EEBE732
:1042400087A7D7E90067F0E78D4EE5E78D4EE3E7F6
:104250008D4EE1E78D4EDFE78D4EDDE7FEF700FF87
:1042600086E70222A0E704229EE706229CE70822B6
:104270009AE70A2298E70C2296E7102294E7202278
:1042800092E7402290E780228EE701228CE7636A62
:104290009BB3012B16D0022B17D0032B18D0042B65
:1042A00018D0052B19D0062B19D0072B19D0082BA5
:1042B0001AD0092B1BD00A2B1CD00B2B1DD14FF46D
:1042C0000046A9E74FF48006A6E74FF40016A3E7DF
:1042D000704EA1E74FF480169EE76F4E9CE76F4E3D
:1042E0009AE74FF4002697E74FF4802694E74FF4BF
:1042F000003691E74FF480368EE74FF400068BE7E7
:104300000122002065E7FEF71BFF616A00296BD0E0
:1043100001296BD002296BD003296BD004296BD003
:1043200005296BD006296BD007296BD008296BD0E3
:1043300009296BD00A296BD00B2914BF01224FF435
:1043400080726168B0FBF2F24B0803EB4203B3FBEF
:10435000F1F31FE078B301282FD002282FD00328D3
:104360002FD004282FD005282FD006282FD007289B
:104370002FD008282FD009282FD00A282FD0434B20
:10438000474A0B2814BF18461046636800EB5300D9
:10439000B0FBF3F39BB20022A3F110004FF6EF71D4
:1043A00088423FF69EAD23F00F012068C3F342031D
:1043B0000B43C36096E53548E7E72C48E5E7394805
:1043C000E3E73948E1E73948DFE73948DDE73948CD
:1043D000DBE73948D9E73948D7E73948D5E73948DD
:1043E000D3E7FEF73DFE90E70122AAE70222A8E705
:1043F0000422A6E70622A4E70822A2E70A22A0E7F1
:104400000C229EE710229CE720229AE7402298E7A0
:10441000802296E7002857D0012858D0022859D08A
:1044200003285AD004285BD005285CD006285DD02C
:1044300007285ED008285FD0092860D00A2861D0FC
:104440000B2814BF4FF480334FF48073606803EB84
:104450005003B3FBF0F39DE700AAB0280000000072
:104460000055581400000000FFFC0F000024F40069
:104470000000127A0000093D0080841E00006A18C6
:104480000040420F0020A1070090D0030048E8013F
:10449000000024F40055150000CC0C0000AA0A000E
:1044A00048E8010000127A005461510000093D0003
:1044B00000D43000AAB0280080841E0040420F00C3
:1044C00020A1070090D003004FF48033BEE74FF4E3
:1044D0000043BBE74FF48043B8E742F6AA23B5E7B1
:1044E0004FF40053B2E741F69813AFE741F254534B
:1044F000ACE74FF48053A9E74FF40063A6E74FF40D
:104500008063A3E74FF40073A0E70122002343E791
:10451000072B00F2CD80DFE803F0042ACB6DCBCB74
:10452000CB86FEF70DFE636A002B66D0012B66D0AA
:10453000022B66D0032B66D0042B66D0052B66D0E9
:10454000062B66D0072B66D0082B66D0092B66D0C9
:104550000A2B66D00B2B14BF01234FF480736268C3
:10456000B0FBF3F303EB5203B3FBF2F320E058B3D9
:1045700001282BD002282BD003282BD004282BD0A5
:1045800005282BD006282BD007282BD008282BD085
:1045900009282BD00A282BD0474B4FF224420B2856
:1045A00014BF18461046636800EB5300B0FBF3F3EA
:1045B0009BB20022A3F110004FF6EF7188423FF644
:1045C00090AC2168CB608DE43B48ECE73B48EAE7E0
:1045D0003B48E8E73B48E6E73B48E4E73B48E2E79F
:1045E0003B48E0E73B48DEE73B48DCE73B48DAE7AF
:1045F0003B48D8E7FEF734FD95E70123AFE70223F8
:10460000ADE70423ABE70623A9E70823A7E70A23BE
:10461000A5E70C23A3E71023A1E720239FE740236E
:104620009DE780239BE7F0B101281FD0022820D00E
:10463000032821D0042822D0052823D0062824D0FE
:10464000072825D0082826D0092827D00A2828D0CE
:104650000B2814BF4FF400438023606803EB500322
:10466000B3FBF0F3A4E74FF40043F6E74FF48043C5
:10467000F3E74FF40053F0E741F25553EDE74FF401
:104680008053EAE740F6CC43E7E740F6AA23E4E7A5
:104690004FF40063E1E74FF48063DEE74FF400730B
:1046A000DBE74FF48073D8E7B1F5004F3FF42DAF4F
:1046B000012200237EE700BF0024F40000127A00EC
:1046C00000093D00AAB0280080841E00006A18007E
:1046D0005558140040420F0020A1070090D003005D
:1046E00048E80100836ADA0710B506D50168C46A94
:1046F0004A6822F4003222434A609C0706D50168CA
:10470000046B4A6822F4803222434A60590706D576
:104710000168446B4A6822F4802222434A601A07E7
:1047200006D50168846B4A6822F4004222434A603D
:10473000DC0606D50168C46B8A6822F480522243E5
:104740008A60990606D50168046C8A6822F40052D2
:1047500022438A605A060FD50168446C4A6822F4E5
:1047600080122243B4F5801F4A6005D14A68846CE8
:1047700022F4C00222434A601B0606D50268C16CBF
:10478000536823F400230B43536010BD2DE9F0411F
:10479000069D04460F46164698462168CA6937EAC0
:1047A00002030CBF01220022B24201D000201AE015
:1047B000681CF3D0FDF7B6FCA0EB0800A842206807
:1047C000036800D88DB923F4D0730360836823F0A5
:1047D000010383602023C4F88030C4F884300023B0
:1047E00084F87C300320BDE8F0815A07D5D5C36931
:1047F0001B05D2D54FF400630362036823F4D07322
:104800000360836823F0010383602023C4F88030B1
:10481000C4F88430C4F88830E1E773B50446002654
:10482000C0F88860FDF77EFC23681B681A07054600
:1048300017D423681B685B070AD56FF07E4300938B
:1048400000222B464FF480012046FFF79FFFA0B9BE
:1048500020230020C4F8803084F87C00C4F8843021
:104860000CE06FF07E430093324603464FF4001194
:104870002046FFF78BFF0028DBD0032002B070BD7D
:1048800010B5044650B3D0F880301BB980F87C30A6
:10489000FCF7B2FC22682423C4F88030136823F0AC
:1048A000010313602046FFF7C3FA012816D0A36A5C
:1048B00013B12046FFF716FF23685A6822F490428E
:1048C0005A609A6822F02A029A601A6842F001023D
:1048D00020461A60BDE81040FFF79FBF012010BDC1
:1048E000184A84B040F20713CDE90023164B029317
:1048F000A3F10323A3F580330393436E23B94FF051
:104900000113836604B0704702689368916804AA33
:1049100002EB5171C3F3426311F8102C11F8081C1B
:10492000D20092FBF1F2A0F86A2004AA134413F813
:10493000102C13F8083CD20092FBF3F3A0F8683077
:10494000E0E700BF0101010308040204704770475B
:10495000704790F87C30012B14D002682423C0F8F3
:1049600080301168136823F00103136021F00051B7
:104970000023436611602022C0F8802080F87C303C
:10498000184670470220704738B590F87C30012BEC
:1049900004461BD0012380F87C302423C0F88030EB
:1049A00003681D681A6822F001021A609A6822F0F2
:1049B000604211439960FFF793FF03681D60202355
:1049C000C0F88030002084F87C0038BD0220FCE76D
:1049D00038B590F87C30012B04461BD0012380F8B9
:1049E0007C302423C0F8803003681D681A6822F0E8
:1049F00001021A609A6822F0606211439960FFF721
:104A00006FFF03681D602023C0F88030002084F809
:104A10007C0038BD0220FCE710B5002488B01822C5
:104A2000214602A88DF8074000F0FEFC084B0293D7
:104A30000DF1070306932146012302A8079300F016
:104A40006BFCA042ACBF9DF80700FF2008B010BD72
:104A50003F0081002DE9F04FCBB04FF000099DF8E9
:104A60005C410094009D9DF854618DF8280005F18B
:104A700009070AAC3744E519ADF82910ADF82B2029
:104A80008DF82D3032469DF85031569901950CA87D
:104A900006F1080A8DF82E308DF82F608DF80F90F2
:104AA00000F0C0FC009B04F80A3004EB0A0B1A4625
:104AB00058990BF1010000F0B5FC009B019A0936F2
:104AC00033441D46BDF86431E353BDF8683153806B
:104AD0004946182204A800F0A7FC0B4B04930DF1E3
:104AE0000F0801230435494604A80694CDE9075868
:104AF000099300F011FC4845ACBF98F80000FF2076
:104B00004BB0BDE8F08F00BF3F00830070B5C8B068
:104B100000258DF820001822294602A88DF807509C
:104B200000F082FC094B02930DF10704012308AE4B
:104B3000294602A80496CDE90534079300F0ECFB62
:104B4000A842ACBF2078FF2048B070BD3F00850070
:104B500070B5C8B000268DF823309DF830318DF83F
:104B600024309DF834318DF825309DF838318DF89A
:104B700026304F9B8DF820008DF821108DF82220D3
:104B8000CDF8273018229DF840318DF82B30314672
:104B900002A88DF8076000F047FC0A4B02930DF164
:104BA00007050C23CDE9053508AC0123314602A8E1
:104BB0000494079300F0B0FBB042ACBF2878FF200C
:104BC00048B070BD3F0086002DE9F041C8B0804676
:104BD0000F4616460021072268461D4600F024FCB9
:104BE0001822002102A88DF820808DF821708DF800
:104BF000226000F019FC144B02930323059308ACC8
:104C00000723002102A80494CDF818D0079300F0E0
:104C100083FB002816DB9DF8000080B9009A9DF800
:104C20000330C2F30F222A809DF8042043EA0223B6
:104C30004E9A1380019B4F9AC3F30F23138048B001
:104C4000BDE8F081FF20FAE73F008A00F0B5C9B067
:104C500000268DF82000024604460DF121008DF853
:104C6000076000F0DFFB1822314602A800F0DCFBF1
:104C70000A4B02930DF10705012308AF01343146B9
:104C800002A80497CDE90545079300F045FBB04223
:104C9000ACBF2878FF2049B0F0BD00BF3F008E00B8
:104CA00010B5002488B01822214602A88DF80740CC
:104CB00000F0BAFB084B02930DF10703069321465F
:104CC000012302A8079300F027FBA042ACBF9DF888
:104CD0000700FF2008B010BD3F00920070B5C8B0BB
:104CE0000025ADF820001822294602A88DF80750AB
:104CF00000F09AFB0A4B02930DF107040223CDE961
:104D0000053408AE0123294602A80496079300F053
:104D100003FBA842ACBF2078FF2048B070BD00BFA5
:104D20003F00950070B5C8B00025ADF820008DF8A3
:104D300022101822294602A88DF8075000F074FBB3
:104D40000A4B02930DF107040323CDE9053408AEA5
:104D50000123294602A80496079300F0DDFAA84231
:104D6000ACBF2078FF2048B070BD00BF3F00A50059
:104D700010B5002488B01822214602A88DF80740FB
:104D800000F052FB084B02930DF1070306932146F6
:104D9000012302A8079300F0BFFAA042ACBF9DF820
:104DA0000700FF2008B010BD3F0001012DE9F04FC2
:104DB0000128C9B004468A469146984639D002284F
:104DC0000CBF1127012701AD03220021284608AEA0
:104DD00000F02AFB012C34702DD0022C2DD1102490
:104DE00006EB070B224651460DF1210000F01AFB9D
:104DF00006F80790182200218BF8018002A800F025
:104E000013FB104B029303340323002102A80496E2
:104E1000CDE90545079300F07FFA00280FDB2878DD
:104E200020B92B68529AC3F30F23138049B0BDE811
:104E3000F08F0327C7E70224D2E74720F6E7FF20D9
:104E4000F4E700BF3F0002012DE9F0430129C9B09A
:104E500006460C469146984646D002290CBF1327B9
:104E6000032708AD0322002101A800F0DDFA012C80
:104E70002E80AC703AD0022C3AD11024EE19224682
:104E800049460DF1230000F0CDFA9DF8403125F898
:104E90000780B3709DF84431F3709DF84831337149
:104EA0009DF84C3173719DF85031B3711822002177
:104EB00002A800F0B9FA0A340F4B029305940323B9
:104EC00001AC002102A804950694079300F024FA8F
:104ED00000280FDB207820B92368559AC3F30F23ED
:104EE000138049B0BDE8F0830527BAE70224C5E77F
:104EF0004720F6E7FF20F4E73F000401F0B5C9B012
:104F00000027ADF82000ADF822108DF824204E992E
:104F10008DF825301A460DF126001C468DF80770D5
:104F200000F080FA1822394602A800F07DFA0A4BF8
:104F300002930DF10706012308AD0634394602A895
:104F40000495CDE90546079300F0E6F9B842ACBFF9
:104F50003078FF2049B0F0BD3F000601F0B5C9B080
:104F60000C46002611468DF8200022460DF1220045
:104F70008DF821408DF8076000F054FA1822314670
:104F800002A800F051FA0A4B02930DF10705012324
:104F900008AF0234314602A80497CDE905450793CE
:104FA00000F0BAF9B042ACBF2878FF2049B0F0BD9C
:104FB0003F000C0070B5C8B000258DF820008DF8BA
:104FC00021101822294602A88DF8075000F02CFA6B
:104FD0000A4B02930DF107040223CDE9053408AE14
:104FE0000123294602A80496079300F095F9A842E8
:104FF000ACBF2078FF2048B070BD00BF3F000F005D
:1050000070B5C8B00025ADF820001822294602A8C6
:105010008DF8075000F008FA0A4B02930DF10704CF
:105020000223CDE9053408AE0123294602A80496DF
:10503000079300F071F9A842ACBF2078FF2048B078
:1050400070BD00BF3F00180010B5002488B01822C2
:10505000214602A88DF8074000F0E6F94FF003134F
:1050600002930DF1070306932146012302A807933B
:1050700000F052F9A042ACBF9DF80700FF2008B035
:1050800010BD0000F0B5C9B007460E461546002118
:105090000522684600F0C8F91822002102A8ADF8E0
:1050A000207000F0C1F90E4B02930223059308AC67
:1050B0000523002102A80494CDF818D0079300F02E
:1050C0002BF900280ADB9DF8000028B99DF8033071
:1050D00033709DF804302B7049B0F0BDFF20FBE722
:1050E0000800300070B5C8B000268DF820008DF89B
:1050F00021108DF822203146182202A88DF8076071
:1051000000F092F90A4B02930DF107050323CDE954
:10511000053508AC0123314602A80494079300F03A
:10512000FBF8B042ACBF2878FF2048B070BD00BF8C
:105130000800310070B5C8B00026ADF82000ADF809
:105140002210ADF82420ADF826303146BDF83031BC
:10515000ADF82830182202A88DF8076000F064F935
:105160000B4A0F230DF10705CDE902230A23CDE9F0
:10517000053508AC0123314602A80494079300F0DA
:10518000CBF8B042ACBF2878FF2048B070BD00BF5C
:105190003F00810113B5EFF3108472B60C480DF196
:1051A000060100F022FC0DF10601094800F07EFC2A
:1051B00040B184F31088074ABDF80610FBF7CEFA19
:1051C00002B010BD044B01221A7084F31088F7E777
:1051D00070020020955100084000002007B5FBF741
:1051E000BBFA022300934FF4805200230349044882
:1051F00000F0E2FA03B05DF804FB00BF900200206B
:105200007002002070B51446EFF31085431C1BD0CC
:10521000013801281AD892B172B696B201233246EB
:105220000C4800F0DDFA60B10B4B1A784AB100224D
:105230001A7085F31088094A3146FBF78FFA204629
:1052400070BD85F31088FAE70024F8E74FF0FF34CB
:10525000F5E700BF700200204000002095510008D3
:10526000FFF7D0BF7FB50F4C4B680F4E20620D4645
:10527000201D236000F0CCF804F124002D6800F01C
:105280005FFA304640F8045B00F05AFA01233373AA
:1052900063682BB104A8054A029540F8102D984781
:1052A00004B070BD9012002000020020DD53000801
:1052B0001FB5164C201D00F046FAC0B9237BB3B1D0
:1052C00001A9201D00F06CFA114B01991A6A012303
:1052D00032B104A8039100F8083D90479DF80830CA
:1052E0002373237B01996BB1084600F079FD0948CF
:1052F00000F029FA20B9237B13B10648FCF7A3FB81
:1053000004B010BD034800F028FAF0E700020020C6
:1053100090120020040200202DE9F7432C4F3B6837
:1053200005460BB1002098476C882B88DFF8A890C1
:10533000C4F3090444EA8324264BD5E90212186811
:10534000A4B2C272A0F80940D2B20C3000F0B0FE94
:1053500000217B690846984748F2E800FCF77AFB91
:105360004FF00008484600F0EEF950B1B8F1000FD8
:10537000F2D03B680BB101209847002003B0BDE894
:10538000F08301A9484600F00BFA019E737A0F2BB7
:105390000CD1B6F80D30A34202BF2B69F27A1A7015
:1053A000337B002BDED04FF00108DBE7B389A3424B
:1053B0000CD1B27A6B692869033AD2B29A42A8BF7B
:1053C0001A466A6106F10E0100F072FEF37AE8E710
:1053D0009012002000020020B412002008B5437A89
:1053E0000E3B012B014606D8074800F0C2F9002009
:1053F000FCF72DFB08BD054800F0BBF90348BDE8EC
:105400000840FCF720BB00BFB412002004020020BB
:10541000024B0360024B0361704700BF855C0008CC
:10542000C55C000800F044BE00F04DBE054B064AC6
:10543000D979814202D0934202D1002318467047A5
:10544000083BF5E7F873FF1F0070FF1F1FB5437897
:10545000FF2B04462FD1B0F8032040F601439A42B7
:1054600029D11649B0F807208B8802339A420FD110
:10547000437BDB0708D500238DF800306846FCF736
:1054800041FB012004B010BD01248DF80040F5E778
:105490004B8801339A420ED1094800F091FE032354
:1054A0008DF80030B4F80B308DF808300D346846B4
:1054B0000194FCF727FB0020E4E700BF0E02002068
:1054C0004F7800082DE9F0472548264CDFF8A480E6
:1054D000DFF8A4A0DFF8A4908AB000F067FB224AAE
:1054E000224B23490094CDE906234FF64063CDE9D2
:1054F0000813012206A908230220FFF757FC4FF6E4
:105500004163CDE908832346012533F8020B059357
:105510000A2700260623CDE9003606AACDE9037541
:10552000029514230221CDE906A9FFF78DFC34F87A
:10553000040B01964FF64263099310230093CDE9C3
:105540000454CDE90257142306AA0221CDE906A985
:10555000CDF82080FFF778FC0AB0BDE8F08700BFE7
:105560004D5400080E0200208FE5B3D52E7F4A98D7
:105570002A487ACC4145228E19ED82AEED214C9D10
:1055800013464FF64262904213B50C4608D10548C7
:105590000022818800880094FFF7B0FC02B010BDA3
:1055A0004220FBE70E0200201FB500F10C026B4603
:1055B00021214FF6664000F085F89DF80E0005B0F9
:1055C0005DF804FB1FB500F10C026B460F214FF68E
:1055D000684000F077F89DF80E0005B05DF804FB18
:1055E00010B5054C0146204600F0C3F82046BDE842
:1055F0001040FBF71EB900BF20020020034B012022
:105600001872034B1B6803B1184770472002002033
:10561000C01200207FB50E4C4B6820620D46201D45
:10562000236000F083F82E680A4D2846EE6000F0F3
:1056300087F8FFF7E3FF01232B74636833B1064A51
:105640000192064A0396029201A8984704B070BDE1
:10565000C01200202002002021570008E155000858
:105660001FB5164C204600F06EF8C0B9237CB3B1CC
:1056700001A9204600F094F8114B01991A6A012300
:1056800032B104A8039100F8083D90479DF8083016
:105690002374237C01996BB1084600F0A1FB0748F5
:1056A00000F051F820B9237C13B10448FBF7C1F88E
:1056B00004B010BD014800F050F8F0E720020020CF
:1056C000C01200202DE9F047134C9846236881460C
:1056D0000F4692460BB100209847104DE8683A46B5
:1056E0000026A0F80990C77251460C302E7200F0C7
:1056F000DFFC636931463046984748F2E800FBF723
:105700009FF8E9688A7808F10800033200F0D0FCBD
:10571000BDE8F047FFF772BFC01200202002002052
:1057200008B50020FBF789F808BD0000024B0360B4
:10573000024B0361704700BF155D0008495D00081A
:10574000C0E900007047EFF3108272B603681B1ABD
:105750005842584182F310887047EFF3108372B6B5
:105760000268C1E9002001600A68516083F3108873
:105770007047EFF3108372B642684A600860416078
:105780004A68116083F310887047EFF3108272B695
:10579000D0E90013196001684B6082F310887047EC
:1057A00010B5EFF3108472B603680B600068FFF762
:1057B000ECFF84F3108810BD10B59DF8084001601F
:1057C0000021C0E90311C0E905114260038104779B
:1057D00014F0020003D0581A18BF0120404210BD37
:1057E0002DE9F04F058904468B46D0E9040185B0C8
:1057F000002D029314BF4FF000084FF0020800295B
:1058000033D0002D34D166682568431CB34228BFCD
:105810009B1B2F5CEB5C023707EB0327BFB21546DF
:10582000E36883429EBF63681B1ADA1B029B05EB89
:10583000080088BF002203FB00F696421CD3B2FB8F
:10584000F0F300FB1323DBB2984515D2227F12F050
:10585000010F08BF0023900754BF9BB21FFA88F3C3
:1058600065B9002005B0BDE8F08F1DB92F46D6E719
:105870002F46D5E70F46D3E70023F1E731446268AE
:105880000B449342EDD82B0A019305EB08034FF02C
:10589000000A9BB2D146CDF800A00393009B029969
:1058A000206962688B4206D140449042236828BF39
:1058B000801A1844D6E738449042238928BF801ABA
:1058C00020618BB92268019915546268431C9A4281
:1058D00098BF9B1A2268D154581C6368834298BFB2
:1058E000C01A63690233636163681B1A9D422E46C6
:1058F00028BF1E469D4203D9B542237F24D90BBB46
:105900002368324618440BEB0A0100F0D1FB6369AF
:10591000039F3344B1466361AE1B002056B1236838
:1059200009EB0A0132461844594400F0C1FB63698F
:105930001E446661A3690133A361009B0133009398
:10594000AA44ABE7002EF5D0DA0721D5238943B965
:1059500023680344FF2203F8022C2368184400F84C
:10596000012C636922891E446661002A38D12368AC
:1059700001991D70236859706369023363612E4673
:105980009146022008EB06070023BFB22361C5E75A
:105990009B07F7D52389002B7FF463AF236803446B
:1059A000320A03F8026C236803440BEB0A0103F884
:1059B000012C23683246184400F07AFBA26963691F
:1059C00001323344A26122686361AB1B1370226809
:1059D000190A517062690232B14662611E46D0E70F
:1059E0004FF000092E464846CCE70289034640693D
:1059F000002A4FF00002F0B514BF002602260A80EC
:105A0000002852D01D891F68DC685A685DB904F10E
:105A1000010C944528BFACEB020C3D5D17F80CC09F
:105A200005EB0C25ADB20D8093F81CC00CF0030CF7
:105A3000BCF1010F20D14FF6FF7C654501D11D89D6
:105A400045B11D69A54217D21D89ADB1A2EB040C69
:105A5000AC4511D20444A41A5C611C890020D860B2
:105A60004CB9012A94BFC2F1010001203C78385C96
:105A700004EB0024A4B20C80D3F80CC00C885D6940
:105A80000CEB0600904204EB060128BF801A6D1A49
:105A900038445D6135B104EB0C013144914228BFBB
:105AA000891AD9609A69013A9A61F0BD0389002B7D
:105AB0004FF000030B804369F0B514BF00250225A9
:105AC000002B35D00289C668D0E9003442B9771C72
:105AD000A74228BF3F1B9A5DDF5D02EB072292B20F
